S01700004763634170706C69636174696F6E312E737265635B
S1130000DAC40000F9C40000F7C400000C946011C5
S11300100C94AF11F1C40000EFC40000EDC4000063
S1130020EBC40000E9C40000E7C40000E5C400001C
S1130030E3C40000E1C40000DFC40000DDC400002C
S1130040DBC40000D9C40000D7C40000D5C400003C
S1130050D3C40000D1C40000CFC40000CDC400004C
S1130060CBC400000C94AB250C94E425C5C400005B
S1130070C3C40000E2C40000BFC40000BDC400004B
S1130080BBC40000B9C40000B7C40000B5C400007C
S1130090B3C40000B1C40000AFC40000ADC400008C
S11300A0ABC40000A9C400000C949C2A0C94522AEE
S11300B0A3C40000A1C400009FC400009DC40000AC
S11300C09BC4000099C4000097C4000095C40000BC
S11300D093C4000091C400008FC400008DC40000CC
S11300E08BC40000621962194F194F1962194F1914
S11300F04F194F194F194F194F194F194F194F19BC
S11301004F194F194F194F194F194F194F194F19AB
S11301104F1962194F194F194F194F194F194F1988
S11301204F1932194F1926194F194F1938194419F3
S11301304F194F194F194F194F194F194F194F197B
S11301404F194F194F194F192C194F194F194F198E
S11301504F194F194F194F194F194F1902190819EF
S1130160DE184F194F194F194F194F19E718201955
S11301704F1914194F194F190E191A194F194F19EC
S11301804F19F018F618FC18631C631E631C891CB5
S1130190631E6F1E781CB21C631E631E631E631EE7
S11301A0631E631E631E631E631E631E631E631E43
S11301B0631E631E631E631E631E631E631E631E33
S11301C0631E631E631E631E631E631E631E631E23
S11301D0631E631E631E631E631E631E631E631E13
S11301E0631E631E631E631E631E631E631E631E03
S11301F0631E631E631E631E631E631E631E631EF3
S1130200631E631E631E631E631E631E631E631EE2
S1130210631E631E631E631E631E631E631E631ED2
S1130220631E631E631E631E631E631E7D1C831C8C
S1130230631C631E631E631E631E631E631E631EB4
S1130240631E631E631E631E631E631E631E631EA2
S1130250631E891C631E6F1E931CA51CB21C631EA7
S1130260631E631E6F1EBB1C711C631EC31C7A1DA0
S1130270921D631E631E991D631E631E631E631E0F
S1130280631E631E631E631E631E631EE31DF81D4F
S11302900D1E221E371E631E391E631E631E631E3F
S11302A0451E631E631E631E631E631E631E631E60
S11302B0631E631E631E631E631E631E631E631E32
S11302C0631E631E631E631E631E631E631E631E22
S11302D0631E631E631E631E631E631E631E631E12
S11302E0631E631E631E631E631E631E631E631E02
S11302F0631E631E631E631E631E631E631E631EF2
S1130300631E631E631E631E631E631E631E631EE1
S1130310631E631E631E631E631E631E631E631ED1
S1130320631E631E631E631E631E631E631E631EC1
S1130330631E631E631E631E631E631E631E631EB1
S1130340631E631E631E631E631E631E631E631EA1
S1130350631E631E631E631E631E631E631E631E91
S1130360631E631E631E631E4F1E591E506F733A35
S113037020256C712C256C712C256C712C256C71CD
S11303802C256C750A004473743A20256C712C2555
S11303906C712C256C712C256C712C256C750A00E4
S11303A00A7B4444415F4352454154453A205B0033
S11303B0256C642C256C642C256C642C256C645D84
S11303C0205B0074733A256C75002C64733A256CB9
S11303D075005D207D0A0054656D70206163686955
S11303E0657665640A0057616974696E6720666F93
S11303F072207461726765742074656D700A0051AF
S113040025642F25642563006F6B20007273204ED2
S1130410256C642045787065637465642063686541
S1130420636B73756D2025640A00453A204261644C
S113043020472D636F646520256400583A256C714C
S11304402C593A256C712C5A3A256C712C453A2555
S11304506C712C463A256C75002C633A256C757DBD
S11304600A456E64706F696E743A20583A256C645C
S11304702C593A256C642C5A3A256C642C453A253F
S11304806C642C463A256C752C633A256C757D009A
S11304904649524D574152455F4E414D453A546588
S11304A061637570204649524D574152455F55521C
S11304B04C3A687474703A2F2F6769746875622EA9
S11304C0636F6D2F747269666669642F5465616326
S11304D075705F4669726D776172652F2050524F57
S11304E0544F434F4C5F56455253494F4E3A312E69
S11304F030204D414348494E455F545950453A4D8B
S1130500656E64656C2045585452554445525F43AA
S11305104F554E543A25642054454D505F53454E33
S1130520534F525F434F554E543A2564204845413A
S11305305445525F434F554E543A256400785F6DDD
S1130540696E3A25642000785F6D61783A256420ED
S113055000795F6D696E3A25642000795F6D61787A
S11305603A256420007A5F6D696E3A25642000455F
S113057063686F206F6666004563686F206F6E0066
S1130580453A20426164204D2D636F6465202564E3
S113059000547B453A25642C20503A2564202A20B7
S11305A0256C64203D20256C64202F20493A256465
S11305B0202A20256C64203D20256C64202F2044B3
S11305C03A2564202A20256C64203D20256C642073
S11305D023204F3A20256C64203D2025757D0A0098
S11305E050574D7B2575203D2025757D0A00503AD6
S11305F0256C6420493A256C6420443A256C6420B7
S1130600496C696D3A2575206372633A257520003B
S113061073746172740A6F6B0A003078000100FC15
S11306200C0B00310615002D051F00A60429004DF2
S11306300433000C043D00D9034700AF0351008C80
S1130640035B006D03650052036F003A03790024D5
S113065003830011038D00FF029700EE02A100DE68
S113066002AB00D002B500C202BF00B502C900A9A6
S113067002D3009D02DD009202E7008802F1007EB1
S113068002FB00740205016B020F0161021901599A
S113069002230150022D0148023701400241013872
S11306A0024B013102550129025F01220269011B3B
S11306B002730114027D010E0287010702910100F9
S11306C0029B01FA01A501F401AF01ED01B901E7B3
S11306D001C301E101CD01DB01D701D501E101D065
S11306E001EB01CA01F501C401FF01BE010902B910
S11306F0011302B3011D02AE012702A8013102A3B6
S1130700013B029D01450298014F02920159028D5D
S113071001630287016D02820177027C0181027705
S1130720018B02710195026C019F026601A90261AD
S113073001B3025B01BD025501C7025001D1024A57
S113074001DB024401E5023E01EF023801F9023205
S11307500103032C010D03260117031F01210319B3
S1130760012B03120135030B013F0304014903FD6F
S1130770005303F5005D03EE006703E6007103DD3B
S1130780007B03D4008503CB008F03C1009903B71A
S113079000A303AC00AD03A000B7039300C103841E
S11307A000CB037300D5036000DF034900E9032B8A
S11307B000F30300000100F60C0B002E0615002BBD
S11307C0051F00A40429004C0433000B043D00D889
S11307D0034700AE0351008A035B006C03650051BC
S11307E0036F00390379002303830010038D00FE97
S11307F0029700ED02A100DD02AB00CF02B500C1FB
S113080002BF00B402C900A802D3009C02DD00911B
S113081002E7008702F1007D02FB00730205016A12
S1130820020F0160021901580223014F022D0147F2
S11308300237013F02410137024B013002550128C2
S1130840025F01210269011A02730113027D010D85
S11308500287010602910100029B01F901A501F33F
S113086001AF01ED01B901E701C301E001CD01DBF5
S113087001D701D501E101CF01EB01C901F501C3A4
S113088001FF01BE010902B8011302B2011D02AD4C
S1130890012702A7013102A2013B029C01450297F4
S11308A0014F02910159028C01630286016D02819C
S11308B00177027C01810276018B02710195026B42
S11308C0019F026601A9026001B3025A01BD0255EB
S11308D001C7024F01D1024901DB024301E5023D98
S11308E001EF023801F902310103032B010D032545
S11308F00117031F01210318012B03110135030BF9
S1130900013F0304014903FC005303F5005D03EDBB
S1130910006703E5007103DD007B03D4008503CB8E
S1130920008F03C1009903B600A303AB00AD039F7E
S113093000B7039200C1038300CB037300D50360A7
S113094000DF034800E9032A00F203040070696E23
S11309503A256420526177204144433A2564207447
S113096061626C6520656E7472793A20256400209A
S113097074656D703A25642E2564002053656E738A
S11309806F723A25640A0044552074656D703A20EC
S11309907B25642025642025642E25647D000A00BF
S11309A0543A0020423A00545B2573755D3A0025A1
S11309B0752E2575000011241FBECFEFD1E2DEBFD6
S11309C0CDBF00E00CBF12E0A0E0B2E0E2E1F9E547
S11309D000E00BBF02C007900D92A233B107D9F714
S11309E025E0A2E3B2E001C01D92A33AB207E1F709
S11309F00E947C250C94872C03CBE4E6F0E08081F4
S1130A008E7F808380E480937C00EAE7F0E087E8CF
S1130A10808310927B001092B30480B380BBA7E064
S1130A20B1E08C918F7D8C9310927E0080E2809354
S1130A307D00808188648083089578941F920F924A
S1130A400FB60F9211240BB60F922F938F939F938F
S1130A50EF93FF932FB7E091B304F0E08091780017
S1130A6090917900EE0FFF1FEE5CFD4F9183808320
S1130A701092B30485E480937C00EBE7F0E080817E
S1130A8088608083EAE7F0E08081806480832FBF00
S1130A90FF91EF919F918F912F910F900BBE0F902B
S1130AA00FBE0F901F9018959FB7F894E82FF0E0B1
S1130AB0EE0FFF1FEE5CFD4F208131819FBF822F1F
S1130AC0932F08955F926F927F928F929F92AF922D
S1130AD0BF92CF92DF92EF92FF920F931F93CF9327
S1130AE0DF938091C704882309F4E9C00F2EF6E749
S1130AF0AF2EF2E0BF2EF02D0F2EF2E7CF2EF2E054
S1130B00DF2EF02D0F2EFEE6EF2EF2E0FF2EF02D5D
S1130B100AE612E0C6E6D2E00E949D288091C6044F
S1130B20882309F4C6C00F2EFCE66F2EF3E07F2E57
S1130B30F02D0F2EFCE35F2EF02D0E94DD21882383
S1130B4079F08091BF04893718F00E94942508C079
S1130B508FB7F8949091BF049F5F9093BF048FBFA9
S1130B608091C504882309F49EC00F2EF6E88F2EC9
S1130B70F3E09F2EF02D8091CF0482FF8EC00E945F
S1130B803D10F50183818F9382818F9381818F93AF
S1130B9080818F93F60183818F9382818F938181EA
S1130BA08F9380818F93F70183818F9382818F93B9
S1130BB081818F9380818F93F80183818F938281C8
S1130BC08F9381818F9380818F938B818F938A817F
S1130BD08F9389818F9388818F937F926F920E94E4
S1130BE09D27E091BC045E9EF0011124EB55FD4F5E
S1130BF0DF01509613968C9113978F9312968C91D4
S1130C0012978F9311968C918F9380898F93DF0124
S1130C101C9613968C9113978F9312968C9112971E
S1130C208F9311968C918F9384858F93DF011896FF
S1130C3013968C9113978F9312968C9112978F938E
S1130C4011968C918F9380858F93DF011496139660
S1130C508C9113978F9312968C9112978F93119670
S1130C608C918F9384818F9383818F9382818F93CF
S1130C7081818F9380818F939F928F920E949D2771
S1130C808DB79EB78C960FB6F8949EBF0FBE8DBFDE
S1130C900E9431158AE00E9440261092C50480917A
S1130CA0C504811168CF1092C6048091C6048111D5
S1130CB044CF1092C7048091C70481112DCFDF91D6
S1130CC0CF911F910F91FF90EF90DF90CF90BF9045
S1130CD0AF909F908F907F906F905F900895FC01EC
S1130CE06115710501F1680F791F2DEE3EEF8191B9
S1130CF02827822F82958227082E8695869580251F
S1130D00082E869580258770022E232F86950794BA
S1130D108795302D28270694879530252827E617B0
S1130D20F70729F702C02DEE3EEF822F932F089587
S1130D308091A0029091A102A091A202B091A3027D
S1130D40892B8A2B8B2BA1F481E090E0A0E0B0E00A
S1130D5080939A0490939B04A0939C04B0939D0465
S1130D608093A0029093A102A093A202B093A30245
S1130D7081E090E0A0E0B0E080935C0290935D029B
S1130D80A0935E02B0935F0280E093E6A8E5B0E032
S1130D908093580290935902A0935A02B0935B0235
S1130DA0E0E8F0E081E080838093810010926F009E
S1130DB0109289001092880010928B0010928A0081
S1130DC010928D0010928C00908190689083E0E9DD
S1130DD0F0E080838093910010927100109299004A
S1130DE01092980010929B0010929A0010929D000D
S1130DF010929C008081886080836D9A259A269A3F
S1130E00279A2E9A2F9A2E982F9852985A9A539836
S1130E105B9AE9E6F0E08081806380838081806C66
S1130E208083EA9AEB9AAAE0B1E08C918F7E8C934E
S1130E30EBE0F1E08081806180838C918B7F8C93E7
S1130E408081846080839898A09A8C918F7B8C9306
S1130E508081806480830895AF92BF92CF92DF92A5
S1130E60EF92FF920F931F93609190027091910201
S1130E7080919202909193020F2EF0E4AF2EF2E44F
S1130E80BF2EFFE0CF2ED12CF02D10E2E12E11EA7F
S1130E90F12E07E010E020E030E0A9010E94F411F7
S1130EA060937B0270937C0280937D0290937E0218
S1130EB060919402709195028091960290919702AC
S1130EC020E030E0A9010E94F41160937F02709346
S1130ED080028093810290938202609198027091C3
S1130EE0990280919A0290919B0218E1E12E17E1F8
S1130EF0F12E05E010E023E030E040E050E00E94F5
S1130F00F41160938302709384028093850290931A
S1130F10860260919C0270919D0280919E02909144
S1130F209F021CE1E12E1BE2F12E00E010E020E024
S1130F3030E0A9010E94F411609387027093880243
S1130F408093890290938A021F910F91FF90EF90F2
S1130F50DF90CF90BF90AF9008952F923F924F9221
S1130F605F926F927F928F929F92AF92BF92CF9235
S1130F70DF92EF92FF920F931F93CF93DF93CDB73E
S1130F80DEB76E970FB6F894DEBF0FBECDBF9E8F4F
S1130F908D8F1B01DC0155961C928091CF0481FF3B
S1130FA004C080EA93E00E947C2685E1F101AD8DC6
S1130FB0BE8D01900D928A95E1F7F1014080518038
S1130FC0628073802091900230919102409192024C
S1130FD05091930229833A834B835C838481958166
S1130FE0A681B7818D839E83AF83B88720919402B5
S1130FF030919502409196025091970229873A8741
S11310004B875C8780859185A285B3858D8B9E8B6C
S1131010AF8BB88F209198023091990240919A0237
S113102050919B02298F3A8F4B8F5C8F0F2EF0E4E7
S1131030AF2EF2E4BF2EFFE0CF2ED12CF02D10E224
S1131040E12E11EAF12E07E010E020E030E0A901E2
S1131050C301B2010E94F411C0907B02D0907C02C3
S1131060E0907D02F0907E029B01AC012C193D09B9
S11310704E095F0969017A0142F4F094E094D09436
S1131080C094C11CD11CE11CF11CAD8DBE8D5696C3
S1131090CD92DD92ED92FC92599760937B0270930E
S11310A07C0280937D0290937E02F10164817581BC
S11310B0868197810F2EF0E4AF2EF2E4BF2EFFE07D
S11310C0CF2ED12CF02D10E2E12E11EAF12E07E003
S11310D010E020E030E0A9010E94F411C0907F02EA
S11310E0D0908002E0908102F09082029B01AC01DA
S11310F02C193D094E095F0969017A0142F4F09403
S1131100E094D094C094C11CD11CE11CF11CAD8DA1
S1131110BE8D5A96CD92DD92ED92FC925D976093CE
S11311207F02709380028093810290938202F10186
S113113060857185828593850F2EF0E4AF2EF2E4ED
S1131140BF2EFFE0CF2ED12CF02D18E1E12E17E1B8
S1131150F12E05E010E023E030E040E050E00E9492
S1131160F411C0908302D0908402E0908502F09044
S113117086029B01AC012C193D094E095F096901E6
S11311807A0142F4F094E094D094C094C11CD11C30
S1131190E11CF11CAD8DBE8D5E96CD92DD92ED927B
S11311A0FC929197609383027093840280938502EA
S11311B09093860221E0F101408151816281738123
S11311C08091900290919102A0919202B091930229
S11311D0481759076A077B070CF420E0AD8DBE8DD4
S11311E055968C91559720FB83F955968C9321E065
S11311F0F1014481558166817781809194029091B7
S11312009502A0919602B0919702481759076A0770
S11312107B070CF420E0AD8DBE8D55968C915597CF
S113122020FB84F955968C9321E0F101408551858A
S1131230628573858091980290919902A0919A0297
S1131240B0919B02481759076A077B070CF420E00A
S1131250AD8DBE8D55968C91559720FB85F955968D
S11312608C93F101848980FF5AC0F485D1011D96C5
S1131270EC911D971E968C911E971F969C914F2F53
S11312805E2F682F792F77233CF4709560955095E5
S113129041955F4F6F4F7F4F4D875E876F87788B88
S11312A00F2EF0E4AF2EF2E4BF2EFFE0CF2ED12CB0
S11312B0F02D1CE1E12E1BE2F12E00E010E020E015
S11312C030E0A9016F2F7E2F0E94F411462F572F73
S11312D0682F792F77233CF470956095509541954C
S11312E05F4F6F4F7F4FED8DFE8D42A353A364A3D9
S11312F075A3F10184859585A685B785809590951C
S1131300A095B0958827B7FD83959927AA27BB2771
S1131310ED8DFE8D258980FB26F9258B7BC06485A8
S1131320758586859785C0909C02D0909D02E0903B
S11313309E02F0909F029B01AC012C193D094E09BD
S11313405F0969017A0142F4F094E094D094C09466
S1131350C11CD11CE11CF11CCD86DE86EF86F88A07
S11313600F2EF0E4AF2EF2E4BF2EFFE0CF2ED12CEF
S1131370F02D1CE1E12E1BE2F12E00E010E020E054
S113138030E0A9010E94F411C0908702D090880235
S1131390E0908902F0908A029B01AC012C193D096E
S11313A04E095F0969017A0142F4F094E094D09403
S11313B0C094C11CD11CE11CF11CAD8DBE8D929654
S11313C0CD92DD92ED92FC92959760938702709393
S11313D088028093890290938A0221E0F101448576
S11313E055856685778580919C0290919D02A09198
S11313F09E02B0919F02481759076A077B070CF4B5
S113140020E0AD8DBE8D55968C91559720FB86F9C5
S113141055968C938091CF0481FF5CC0F101848543
S11314209585A685B78540919C0250919D02609157
S11314309E0270919F02841B950BA60BB70BBF9362
S1131440AF939F938F9380859185A285B3854091B7
S113145098025091990260919A0270919B02841BA8
S1131460950BA60BB70BBF93AF939F938F93848178
S11314709581A681B7814091940250919502609123
S1131480960270919702841B950BA60BB70BBF9322
S1131490AF939F938F9380819181A281B381409177
S11314A09002509191026091920270919302841B78
S11314B0950BA60BB70BBF93AF939F938F9380EBC2
S11314C093E09F938F930E949D270FB6F894DEBFFD
S11314D00FBECDBFED8DFE8D86899789A08DB18D10
S11314E086A397A3A0A7B1A7428D538D648D758D54
S11314F084179507A607B70720F446A357A360A748
S113150071A7ED8DFE8D868D978DA0A1B1A146A109
S113151057A160A571A5481759076A077B0720F4EE
S113152086A397A3A0A7B1A7ED8DFE8D82A193A159
S1131530A4A1B5A146A157A160A571A54817590753
S11315406A077B0720F486A397A3A0A7B1A780917D
S1131550CF0481FF1DC0AD8DBE8D99968C91999756
S11315608F9398968C9198978F9397968C91979741
S11315708F9396968C918F9383EC93E09F938F93A4
S11315800E949D270F900F900F900F900F900F9037
S1131590ED8DFE8D86A197A1A0A5B1A5892B8A2BDF
S11315A08B2B21F485898160858BCCC129813A817B
S11315B04B815C81421A530A640A750A42F470949E
S11315C0609450944094411C511C611C711C498AC4
S11315D05A8A6B8A7C8A8D819E81AF81B8852985E0
S11315E03A854B855C85821B930BA40BB50B3AF4AF
S11315F0B095A095909581959F4FAF4FBF4F8D8328
S11316009E83AF83B8878D889E88AF88B88C898D78
S11316109A8DAB8DBC8D881A990AAA0ABB0A42F42A
S1131620B094A09490948094811C911CA11CB11C32
S11316300E948A2581149104A104B10471F42D81BE
S11316403E814F81588569897A898B899C89A4D781
S113165069837A838B839C8324C029893A894B8943
S11316605C89232B242B252B41F48D819E81AF8112
S1131670B885892B8A2B8B2B81F0850174012D81F0
S11316803E814F81588569897A898B899C89FED7E7
S113169069837A838B839C8304C089829A82AB8218
S11316A0BC8229813A814B815C812230310541051C
S11316B0510540F43D8539834E854A835F855B83BC
S11316C088898C838091CF0481FF14C09C819F936F
S11316D0AB81AF93BA81BF93E981EF938AEC93E036
S11316E09F938F930E949D270F900F900F900F90C0
S11316F00F900F90AD8DBE8D9696CD90DD90ED90B0
S1131700FC909997A0E6B9E02D813E814F815885E0
S11317100E94472CA70196010E94F82BA0E9B1E092
S11317200E94472C0F2EF8EC4F2E512C612C712C5B
S1131730F02DA30192010E94F82B29873A874B8749
S11317405C87A0E6B9E029893A894B895C890E94C3
S1131750472CA70196010E94F82BA0E9B1E00E9452
S1131760472CA30192010E94F82BB42FA32F922F90
S1131770882729853A854B855C854424522E632E1F
S1131780742E481659066A067B0610F42C013D0196
S1131790A0E6B9E0A50194010E94472CA701960197
S11317A00E94F82BA0E9B1E00E94472C24E630E027
S11317B040E050E00E94F82BB42FA32F922F8827EB
S11317C0481659066A067B0610F42C013D01A0E672
S11317D0B9E02D853E854F8558890E94472CA70185
S11317E096010E94F82BA0E9B1E00E94472C28E55D
S11317F032E040E050E00E94F82BB42FA32F922F48
S11318008827481659066A067B0610F42C013D0108
S1131810A0E6B9E029813A814B815C810E94472C82
S1131820A70196010E94F82BA0E9B1E00E94472C81
S1131830D10150962D913D914D915C9153970E9409
S1131840F82BB42FA32F922F882784159505A6056E
S1131850B70538F0ED8DFE8D86AB97ABA0AFB1AF79
S113186008C0AD8DBE8DD6964D925D926D927C92E0
S1131870D997F10180899189A289B3898F3F9F4FBC
S1131880A105B10548F08EEF9FEFA0E0B0E0F101B3
S1131890808B918BA28BB38BD10150966D917D91EE
S11318A08D919C9153979B01AC010E94E92B20E4FC
S11318B038E340E050E00E94F82BED8DFE8D26A722
S11318C037A740AB51AB29893A894B895C89232BD3
S11318D0242B252B81F48D819E81AF81B885892BA2
S11318E08A2B8B2B41F480EA96E8A1E0B0E086A72E
S11318F097A7A0ABB1ABED8DFE8D86A197A1A0A556
S1131900B1A5AC01BD017695679557954795C6A4D9
S1131910D7A4E0A8F1A84C155D056E057F0520F459
S113192046A757A760AB71ABED8DFE8D46A557A5B5
S113193060A971A9841B950BA60BB70B82AB93AB63
S1131940A4ABB5AB8091CF0481FF04C082ED93E0DA
S11319500E947C2685E1F101A0E9B2E001900D929C
S11319608A95E1F76E960FB6F894DEBF0FBECDBF31
S1131970DF91CF911F910F91FF90EF90DF90CF9067
S1131980BF90AF909F908F907F906F905F904F909B
S11319903F902F900895CF93DF93EC018D8980FDC4
S11319A082C01092BF0483FF02C02E9A01C02E98F9
S11319B08D8984FD02C02F9A01C02F988D8985FDE1
S11319C006C0EBE0F1E080818260808305C0EBE03B
S11319D0F1E080818D7F80838D8986FF02C0169A15
S11319E001C016984EA15FA168A579A57695679563
S11319F05795479570956095509541955F4F6F4FFA
S1131A007F4F40934002509341026093420270938F
S1131A10430240933C0250933D0260933E02709314
S1131A203F02409338025093390260933A02709314
S1131A303B02409334025093350260933602709314
S1131A403702FE01769680E1A4E4B2E001900D92A3
S1131A508A95E1F7109254021092550210925602A0
S1131A60109257028D8982608D8B8EA99FA9A8AD93
S1131A70B9AD409158025091590260915A02709147
S1131A805B02481759076A077B0738F4692F7A2FD6
S1131A908B2F99270E94202B06C09927872F762FFA
S1131AA0652F0E94202B88899989AA89BB898093F4
S1131AB0760290937702A0937802B0937902DF9133
S1131AC0CF9108957F928F929F92AF92BF92CF92BF
S1131AD0DF92EF92FF920F931F93CF93DF93EC016A
S1131AE08AAD80FF64C2109100018BAD90E011FBC0
S1131AF0AA27A0F9B0E0A817B90731F4A0E6B2E02C
S1131B001C911F5F1C9302C010926002A0910001FF
S1131B10EA2FE170F0E08E179F0731F4E3E6F2E07C
S1131B2080818F5F808302C0109263028091600283
S1131B30843008F051C080916302843008F439C2C3
S1131B40712C4BC0E4E3F2E080819181A281B381E6
S1131B50CE88DF88E88CF98C8C199D09AE09BF0901
S1131B6080839183A283B383BB23BCF58D8983FFD8
S1131B7002C02E9A01C02E988D8984FD02C02F9A2E
S1131B8001C02F988FEF90E0909389008093880094
S1131B9090939D0080939C00E4E4F2E08081918125
S1131BA0A281B3810197A109B10980839183A283A2
S1131BB0B383E4E3F2E0C080D180E280F3808EA1BD
S1131BC09FA1A8A5B9A58C0D9D1DAE1DBF1D808329
S1131BD09183A283B38301C0712C1AAD11FFF9C1A3
S1131BE0E09103018BAD90E0E1FB442740F950E024
S1131BF04817590731F4E1E6F2E040814F5F408332
S1131C0002C01092610240910301642F617070E080
S1131C108617970731F4E4E6F2E080818F5F8083D2
S1131C2002C010926402809161028430C8F58091F0
S1131C3064028430A8F502E0702ACBC1E8E3F2E044
S1131C4080819181A281B3814A8D5B8D6C8D7D8D64
S1131C50841B950BA60BB70B80839183A283B3835C
S1131C60BB23F4F4B701A60141505109610971097C
S1131C70409348025093490260934A0270934B0286
S1131C804EA15FA168A579A5840F951FA61FB71F54
S1131C908093380290933902A0933A02B0933B02A6
S1131CA012FFA6C189B183FB222720F930E08BAD56
S1131CB090E02817390749F4E2E6F2E080818F5F6B
S1131CC08083843008F042C002C010926202809186
S1131CD065028430D8F514E0712A8AC1ECE3F2E09D
S1131CE080819181A281B3814E8D5F8D68A179A19C
S1131CF0841B950BA60BB70B80839183A283B383BC
S1131D00BB2324F5EBE0F1E0808188608083ECE480
S1131D10F2E080819181A281B3810197A109B10987
S1131D2080839183A283B383ECE3F2E04081518109
S1131D30628173818EA19FA1A8A5B9A5840F951F67
S1131D40A61FB71F80839183A283B383809150021F
S1131D5090915102A0915202B0915302892B8A2B87
S1131D608B2BA1F1E0E4F2E080819181A281B38127
S1131D704AA15BA16CA17DA1841B950BA60BB70B9B
S1131D8080839183A283B383BB2304F5149AE0E593
S1131D90F2E080819181A281B3810197A109B10907
S1131DA080839183A283B383E0E4F2E04081518194
S1131DB0628173818EA19FA1A8A5B9A5840F951FE7
S1131DC0A61FB71F80839183A283B3837894C090A6
S1131DD05402D0905502E0905602F09057028EA51E
S1131DE09FA5A8A9B9A9C816D906EA06FB06F0F466
S1131DF080915C0290915D02A0915E02B0915F02BD
S1131E00BB230CF003C14EEF5FEF6FEF7FEF8A014E
S1131E109B01081B190B2A0B3B0B00935C021093CC
S1131E205D0220935E0230935F02F0C08AA99BA9F1
S1131E30ACA9BDA9C816D906EA06FB0608F180912B
S1131E405C0290915D02A0915E02B0915F0218164F
S1131E5019061A061B060CF0D9C04EEF5FEF6FEFA0
S1131E607FEF8A019B01081B190B2A0B3B0B009384
S1131E705C0210935D0220935E0230935F02C6C041
S1131E801FEFC11AD10AE10AF10AC0925402D0929A
S1131E905502E0925602F09257028AAD882321F14E
S1131EA0711022C0109250021092510210925202EC
S1131EB01092530210924C0210924D0210924E0254
S1131EC010924F02109248021092490210924A0254
S1131ED010924B0210924402109245021092460254
S1131EE0109247020E949806809144029091450204
S1131EF0A0914602B0914702892B8A2B8B2B41F586
S1131F008091480290914902A0914A02B0914B02FB
S1131F10892B8A2B8B2BE1F480914C0290914D02FA
S1131F20A0914E02B0914F02892B8A2B8B2B81F406
S1131F308091500290915102A0915202B0915302AB
S1131F40892B8A2B8B2B21F48D898D7F8D8B02C05D
S1131F501092BF04CEA8DFA8E8ACF9AC8091580277
S1131F6090915902A0915A02B0915B028C159D0583
S1131F70AE05BF0538F499278F2D7E2D6D2D0E9457
S1131F80202B06C0692F7A2F8B2F99270E94202B94
S1131F90EBE0F1E08081877F8083149810928900C0
S1131FA01092880010929D0010929C0058C0712CD1
S1131FB002C0772473948091440290914502A091C9
S1131FC04602B0914702892B8A2B8B2B09F0BACD9C
S1131FD004CEC0904802D0904902E0904A02F090AA
S1131FE04B02C114D104E104F10409F027CE58CE08
S1131FF080914C0290914D02A0914E02B0914F02FB
S1132000892B8A2B8B2B09F069CEA0CEECE5F2E06C
S113201080819181A281B3819C01AD012C5F3F4FEE
S11320204F4F5F4F208331834283538308E512E08F
S1132030F80180809180A280B380C501B401660F4D
S1132040771F881F991F0E941A2C821A930AA40AC8
S1132050B50AF80180829182A282B38211CFDF9106
S1132060CF911F910F91FF90EF90DF90CF90BF9091
S1132070AF909F908F907F9008951F93CF93DF939D
S1132080C091BC0421D4882309F441C08091B804D0
S11320909091B904A091BA04B091BB0480936602F4
S11320A090936702A0936802B09369028091B4048C
S11320B09091B504A091B604B091B70480936A02DC
S11320C090936B02A0936C02B0936D02809198027E
S11320D090919902A0919A02B0919B0280936E0212
S11320E090936F02A0937002B093710280919C024E
S11320F090919D02A0919E02B0919F0280937202E2
S113210090937302A0937402B0937502D5C08CE3CC
S1132110C89FE0011124CB55DD4F1D8911FFCCC0B0
S11321208091B8049091B904A091BA04B091BB0411
S11321308093660290936702A0936802B093690249
S11321408091B4049091B504A091B604B091B70401
S113215080936A0290936B02A0936C02B0936D0219
S113216015FF23C020914C0230914D0240914E0244
S113217050914F02A8EEB3E00E94472C26E03DE0C8
S113218040E050E00E94F82B88859985AA85BB859C
S1132190821B930BA40BB50B80936E0290936F027A
S11321A0A0937002B093710222C020914C0230912E
S11321B04D0240914E0250914F02A8EEB3E00E94AE
S11321C0472C26E03DE040E050E00E94F82B888553
S11321D09985AA85BB85820F931FA41FB51F809381
S11321E06E0290936F02A0937002B09371028C8977
S11321F080FF1BC020915002309151024091520245
S113220050915302A8EEB3E00E94472C2BE030E03B
S113221040E050E00E94F82B209372023093730246
S1132220409374025093750247C016FF23C0209157
S11322305002309151024091520250915302A8EE43
S1132240B3E00E94472C2BE030E040E050E00E94D5
S1132250F82B8C859D85AE85BF85821B930BA40BC3
S1132260B50B8093720290937302A0937402B0939F
S1132270750222C0209150023091510240915202C5
S113228050915302A8EEB3E00E94472C2BE030E0BB
S113229040E050E00E94F82B8C859D85AE85BF857B
S11322A0820F931FA41FB51F809372029093730231
S11322B0A0937402B0937502DF91CF911F9108959A
S11322C01F920F920FB60F9211240BB60F924F93D9
S11322D05F936F937F938F939F93AF93BF93EF938A
S11322E0FF93E9E0F1E08081829581708093CB04D3
S11322F0808182FB882780F98093CE048091CB046F
S1132300882321F04FEF5FEFBA0104C041E050E0B1
S113231060E070E08091B8049091B904A091BA048F
S1132320B091BB04840F951FA61FB71F8093B804F8
S11323309093B904A093BA04B093BB04FF91EF91B6
S1132340BF91AF919F918F917F916F915F914F91C9
S11323500F900BBE0F900FBE0F901F9018951F92F9
S11323600F920FB60F9211244F935F936F937F9345
S11323708F939F93AF93BF9382B381708093CC0468
S11323808091090186FB882780F98093CD04809190
S1132390CC04882321F04FEF5FEFBA0104C041E081
S11323A050E060E070E08091B4049091B504A09195
S11323B0B604B091B704840F951FA61FB71F80936E
S11323C0B4049093B504A093B604B093B704BF913A
S11323D0AF919F918F917F916F915F914F910F90EA
S11323E00FBE0F901F9018952F923F924F925F92BD
S11323F06F927F928F929F92AF92BF92CF92DF9211
S1132400EF92FF920F931F93CF93DF93CDB7DEB775
S113241028970FB6F894DEBF0FBECDBF1B012C0169
S1132420992354F45094409430942094211C311CEA
S1132430411C511C61E001C060E0211431044104DD
S1132440510409F476C01D821E821F8218861982E7
S11324501A821B821C8220FE32C069807A808B80A3
S11324609C80620E731E841E951E69827A828B8202
S11324709C828D819E81AF81B8858E0D9F1DA01F8A
S1132480B11F8D839E83AF83B8878A159B05AC05E6
S1132490BD05A8F0D401C3010196A11DB11D898316
S11324A09A83AB83BC836D807E808F8098846A1806
S11324B07B088C089D086D827E828F829886559455
S11324C0479437942794220F331F441F551FEE0C53
S11324D0FF1C001F111FEA14FB040C051D0540F02E
S11324E02F5F3F4F4F4F5F4FEA18FB080C091D0940
S11324F0211431044104510409F0ADCFD601C501C2
S1132500B695A795979587952D813E814F815885DE
S113251082179307A407B50780F489819A81AB8158
S1132520BC810196A11DB11D89839A83AB83BC83B1
S113253004C019821A821B821C82662361F00981FD
S11325401A812B813C8130952095109501951F4F60
S11325502F4F3F4F04C009811A812B813C81602F8A
S1132560712F822F932F28960FB6F894DEBF0FBEDB
S1132570CDBFDF91CF911F910F91FF90EF90DF902E
S1132580CF90BF90AF909F908F907F906F905F900F
S11325904F903F902F9008954F925F926F927F9249
S11325A08F929F92AF92BF92CF92DF92EF92FF925F
S11325B00F931F93621773078407950728F4690123
S11325C07A014B015C0104C06B017C0149015A0191
S11325D0A9EBB1E0A50194010E94472C2B013C0119
S11325E0AFEEB3E0A70196010E94472C930182014C
S11325F0060F171F281F391F689413F8880C991C9D
S1132600AA1CBB1C1694D1F7C814D904EA04FB0411
S1132610F0F4CC0CDD1CEE1CFF1CCC0CDD1CEE1C01
S1132620FF1CCC0CDD1CEE1CFF1CD701C601880F5F
S1132630991FAA1FBB1F880F991FAA1FBB1FC80E73
S1132640D91EEA1EFB1E0C191D092E093F091E5F27
S11326502F4F3F4F0F2EFAE0369527951795079584
S1132660FA95D1F7F02D602F712F822F932F1F91A0
S11326700F91FF90EF90DF90CF90BF90AF909F901D
S11326808F907F906F905F904F9008954F925F92DC
S11326906F927F928F929F92AF92BF92CF92DF926E
S11326A0EF92FF920F931F93CF93DF93CDB7DEB7D3
S11326B028970FB6F894DEBF0FBECDBF621773071D
S11326C08407950748F46D837E838F8398872983D5
S11326D03A834B835C8308C02D833E834F835887A2
S11326E069837A838B839C8329813A814B815C81C2
S11326F0E216F3060407150780F08D819E81AF81F1
S1132700B885E816F9060A071B07C0F42C013D0139
S1132710ED82FE820F83188713C04D805E806F8028
S1132720788429813A814B815C812D833E834F8358
S11327305887E982FA820B831C8302C0270138017F
S1132740A3E5B3E02D813E814F8158850E94472C3B
S11327504B015C01ACE5B3E0A30192010E94472C5C
S1132760860E971EA81EB91EA8E0B2E029813A8100
S11327704B815C810E94472C860E971EA81EB91EB1
S11327808D819E81AF81B885880F991FAA1FBB1FB9
S1132790481659066A067B0650F4A6E2B1E0A30186
S11327A092010E94472C861A970AA80AB90A8981BD
S11327B09A81AB81BC81880F991FAA1FBB1F880F08
S11327C0991FAA1FBB1F89839A83AB83BC834816B6
S11327D059066A067B0650F4A1E7B0E0A301920112
S11327E00E94472C861A970AA80AB90A2D813E81AD
S11327F04F81588589819A81AB81BC81281739071B
S11328004A075B0700F569017A01CC0CDD1CEE1C5C
S1132810FF1CCC0CDD1CEE1CFF1CCC0CDD1CEE1CC8
S1132820FF1CD701C601880F991FAA1FBB1F880F61
S1132830991FAA1FBB1FC80ED91EEA1EFB1E8C18A7
S11328409D08AE08BF0892E0990EA11CB11C072E8A
S11328507AE0B694A794979487947A95D1F7702DDB
S1132860682D792D8A2D9B2D28960FB6F894DEBFFE
S11328700FBECDBFDF91CF911F910F91FF90EF90CD
S1132880DF90CF90BF90AF909F908F907F906F908C
S11328905F904F9008958091BC042091BD04281747
S11328A038F490E0821B9109019751F48FEF089559
S11328B090E00896821B9109019721F48FEF089507
S11328C080E0089580E008959FB7F894E091BC04F7
S11328D08091BD04E8130BC08CE3E89FF001112440
S11328E0E654FD4F808181FF04C080E003C080E096
S11328F001C08FEF9FBF08951F93CF93DF931CE315
S11329001CC08F5F8770189FE0011124CB55DD4FE9
S11329108093BC048D8982FF0EC086EE93E00E94F2
S11329207C268D8982608D8B60E074E284EF90E078
S11329300E94202B02C0CE012ED8C6DF81110AC00E
S11329408091BC04189FF0011124E654FD4F90813E
S113295091FFD7CFDF91CF911F910895DF92EF922E
S1132960FF920F931F93CF93DF938C01D62EE42E07
S113297003C084E690E0B1D08EDF8111FACFF090ED
S1132980BD048F2D8F5F0F2EF7E0FF2EF02DF82260
S11329902CE3F29EE0011124CB55DD4F95DF81112C
S11329A00AC08091BD042CE3829FC0011124AC01B4
S11329B04B555D4F02C040E050E00115110539F060
S11329C0B801CE010E94AD07DAAEEBAE04C08D892A
S11329D084608E7F8D8BF092BD049FB7F894E09154
S11329E0BC048CE3E89FF0011124E654FD4F808180
S11329F0869581709FBF811102C07EDF7894DF913C
S1132A00CF911F910F91FF90EF90DF900895CF9396
S1132A10DF93C091BC048CE3C89FE0011124CB5523
S1132A20DD4F8D8981FF19C082FF13C060E074E21D
S1132A3084EF90E00E94202B0E94102A882359F0F2
S1132A408D898B7F8D7F8D8B87ED93E00E947C2613
S1132A5002C0CE0137D88D8981FF4EDFDF91CF913F
S1132A60089519DF811106C02FDF882331F085E432
S1132A7090E005C086E490E002C080E290E09F937D
S1132A808F938091BD041F928F938091BC041F92F9
S1132A908F938FEF93E09F938F930E949D278DB721
S1132AA09EB708960FB6F8949EBF0FBE8DBF0895CB
S1132AB0E091BD04E093BC048CE3E89FF001112491
S1132AC0E654FD4F80818D7F8083089502C00E946B
S1132AD06205FADE8823D9F30895813020E4920751
S1132AE0F8F09C014EEF5FEFFA013197F1F73054A3
S1132AF0213060E43607C0F7BC016150704464E0E3
S1132B00769F612D7727112440E050EC649F90015B
S1132B10659F300D749F300D11249054820F931FC4
S1132B20880F991F880F991F0197F1F70895CF9285
S1132B30DF92EF92FF926B017C0182E4C816D1040C
S1132B40E104F10470F087EE9DEFC7DF81E4C81A59
S1132B50D108E108F10882E4C816D104E104F104C3
S1132B6090F728EE33E0C29EC001C39E900DD29E22
S1132B70900D1124B2DFFF90EF90DF90CF90089575
S1132B804F925F926F927F928F929F92AF92BF9279
S1132B90CF92DF92EF92FF92CF93DF93EC01AB01E0
S1132BA0C880D980EA80FB80EC81EF7709F470C09B
S1132BB0E15009F46DC09B01ADECBCEC0E943B2CD0
S1132BC09695879596958795969587959C01220F5E
S1132BD0331F880F991F880F991F880F991F820F21
S1132BE0931F48175907A9F59A01ADECBCEC0E9454
S1132BF03B2CAC0156954795569547955695479568
S1132C00E15009F445C09A010E943B2C96958795A2
S1132C1096958795969587959C01220F331F880F6B
S1132C20991F880F991F880F991F820F931F4817A8
S1132C305907D1F20EC08C81882344F48827992740
S1132C40DC01821B930BA40BB50B2AC0DA01C9016A
S1132C5027C0F0E0EE0FFF1FEE0FFF1FE65FFD4FF2
S1132C6080809180A280B38024013501769467949A
S1132C7057944794DA01A70196010E94472C640DEA
S1132C80751D861D971DA50194010E94F82BD3CFB5
S1132C90DA01A70196010E94472C9B01AC01CBCF1E
S1132CA0392F9B2F682F732F8A2FDF91CF91FF909D
S1132CB0EF90DF90CF90BF90AF909F908F907F90D8
S1132CC06F905F904F900895E5E8F4E08081816013
S1132CD0808381E080938804E6E8F4E08081806862
S1132CE080830895CF93DF93D82F81568A3118F4C7
S1132CF0CD2FCF7D01C0CD2F8091BE04882309F450
S1132D00DAC19C2F91549A3138F0CA3229F0CA3072
S1132D1019F0CD3009F0CFC1803509F475C190F4B4
S1132D20873409F148F4853409F4D8C008F005C1A2
S1132D308A3209F0B4C1A3C18D3461F18E3409F033
S1132D40AEC18BC18835E9F138F4833509F424C167
S1132D50843509F0A4C16BC1893509F461C08A3591
S1132D6009F09DC18CC08091AE049091AF04A091F4
S1132D70B004B091B104809388042091CF0422233D
S1132D800CF08DC1BC01CD017727882799270E94BB
S1132D90B92685C18091AE049091AF04A091B0048E
S1132DA0B091B104809389042091CF0422230CF0C4
S1132DB076C1BC01CD017727882799270E94B926BF
S1132DC06EC18091870480FF0EC068E373E68EEACB
S1132DD094E0D6DE60938A0470938B0480938C0411
S1132DE090938D040DC068EE73E08EEA94E0C8DE23
S1132DF060938A0470938B0480938C0490938D0465
S1132E008091CF0488230CF04AC160918A047091A8
S1132E108B0480918C0490918D040E9408273FC1FB
S1132E208091870480FF0EC068E373E68EEA94E025
S1132E30A7DE60938E0470938F0480939004909324
S1132E4091040DC068EE73E08EEA94E099DE60931D
S1132E508E0470938F0480939004909391048091D6
S1132E60CF0488230CF01BC160918E0470918F04F1
S1132E7080919004909191040E94082710C1809140
S1132E80870480FF0EC068E373E68EEA94E078DE80
S1132E9060939204709393048093940490939504A4
S1132EA00DC068EE73E08EEA94E06ADE60939204EB
S1132EB07093930480939404909395048091CF0429
S1132EC088230CF0ECC0609192047091930480917B
S1132ED09404909195040E940827E1C0809187048E
S1132EE080FF0EC068E373E68EEA94E049DE6093E7
S1132EF096047093970480939804909399040DC05A
S1132F0068EE73E08EEA94E03BDE6093960470937F
S1132F10970480939804909399048091CF04882314
S1132F200CF0BDC060919604709197048091980450
S1132F30909199040E94B926B2C08091870480FFC1
S1132F400EC068E373E68EEA94E01ADE60939A0496
S1132F5070939B0480939C0490939D040DC061E046
S1132F6070E08EEA94E00CDE60939A0470939B0404
S1132F7080939C0490939D048091CF0488230CF04B
S1132F808EC060919A0470919B0480919C049091EE
S1132F909D040E94B92683C080918904883621F05B
S1132FA08D3611F08C3851F464E070E08EEA94E0D0
S1132FB0E7DD7093A00460939F0416C082588330A9
S1132FC050F460E074E08EEA94E0DADD7093A004DB
S1132FD060939F0409C061E070E08EEA94E0D0DD64
S1132FE07093A00460939F048091CF0488230CF015
S1132FF056C060919F047091A004882777FD809546
S1133000982F0E94B9264BC061E070E08EEA94E0EC
S1133010B7DD7093A2046093A1042091CF0422230E
S11330200CF03DC0882799270E94B92638C08091AA
S1133030AE049091AF04A091B004B091B104809318
S1133040A3042091CF04222354F5BC01CD0177279A
S1133050882799270E94B92622C061E070E08EEA91
S113306094E08EDDE4EAF4E06083718382839383E9
S11330702091CF0422239CF40E94B92610C061E061
S113308070E08EEA94E07CDD6093AC042091CF0480
S113309022232CF47727882799270E94B926109297
S11330A0BE041092AE041092AF041092B0041092B9
S11330B0B1041092B20480918604982F907309F0A1
S11330C0F8C08C2F81548A3110F0CA3249F4C0936D
S11330D0BE048091CF0488231CF48C2F0E944026C8
S11330E08C2F80538A3008F05DC02091B2042F7772
S11330F0822F90E004970CF0E5C08091870480FD56
S11331000EC04091AE045091AF046091B004709130
S1133110B1044F3A55476144710578F0D3C08091AA
S1133120AE049091AF04A091B004B091B1048D3F6E
S11331309048A240B10508F0C5C0EEEAF4E0408131
S1133140518162817381440F551F661F771FDB0114
S1133150CA01880F991FAA1FBB1F880F991FAA1F96
S1133160BB1F480F591F6A1F7B1F8C2F90E0C0970D
S1133170AA2797FDA095BA2F480F591F6A1F7B1FD6
S113318040835183628373838091B2048F7709F4FF
S113319099C02F5F2F77E2EBF4E080818078282BB1
S11331A0208390C04C2F50E0FA013997E235F105A5
S11331B008F075C0EE58FF4F0C94352CE5E8F4E0A8
S11331C0808181608D7F8083109289047BC0E5E8D3
S11331D0F4E0808182608E7F80831092880472C0C4
S11331E0E5E8F4E08081846080836CC0E5E8F4E085
S11331F080818860808366C0E5E8F4E08081806136
S1133200808360C0E5E8F4E08081806280835AC0F6
S1133210E5E8F4E080818064808354C0E5E8F4E06C
S11332208081806880834EC0E6E8F4E0808181601C
S1133230808348C0E6E8F4E080818260808342C0F5
S1133240E6E8F4E08081846080833CC0E6E8F4E052
S113325080818860808336C0E6E8F4E08081806104
S1133260808330C0E6E8F4E08081806280832AC0F5
S113327080E88093B2041092AE041092AF041092CE
S1133280B0041092B1041EC08091B2048F77D1F4BF
S1133290E2EBF4E0808180788160808313C08FE367
S11332A00E9440268C2F0E9440268FE30E944026D5
S11332B009C085FF07C0C93229F4E6E8F4E080813B
S11332C08F7D80838091860483FD05C0EDEAF4E060
S11332D08081D827D083CA3019F0CD3009F084C05A
S11332E08091CF0488231CF48C2F0E944026809167
S11332F0AD049091AC04891721F09091860493FD5C
S113330020C088E094E00E947C2671D08AE00E946C
S113331040268091860482FF2EC08091A40490915F
S1133320A504A091A604B091A7040196A11DB11D06
S11333308093A8049093A904A093AA04B093AB0427
S11333401AC01F928F93E8EAF4E083818F938281FD
S11333508F9381818F9380818F938CE094E09F93EE
S11333608F930E949D278DB79EB708960FB6F89449
S11333709EBF0FBE8DBF1092AD041092AC04A6E8A0
S1133380B4E08C91E5E8F4E09081817C8E7F8C93AD
S113339091709160908391E090938804982F86FFB8
S11333A018C01092920410929304109294041092F4
S11333B0950410928E0410928F041092900410922F
S11333C0910410928A0410928B0410928C0410922F
S11333D08D04892F807C41F01092960410929704FA
S11333E01092980410929904DF91CF910895CF928E
S11333F0DF92EF92FF92CF93DF93C0918604C6FFD2
S113340042C0EAE8F4E04081518162817381809195
S1133410900290919102A0919202B0919302840F34
S1133420951FA61FB71F80839183A283B383EEE801
S1133430F4E0408151816281738180919402909182
S11334409502A0919602B0919702840F951FA61F32
S1133450B71F80839183A283B383E2E9F4E04081C0
S11334605181628173818091980290919902A09117
S11334709A02B0919B02840F951FA61FB71F8083E9
S11334809183A283B3838C2F807C31F0EEE9F4E046
S113349080818160808305C0EEE9F4E080818E7FC5
S11334A0808360918A0470918B0480918C04909144
S11334B08D040E94862B6B017C0120E030E0A90181
S11334C00E94802B88234CF410928A0410928B045F
S11334D010928C0410928D0416C020E030E543E471
S11334E058E4C701B6010E94E52B181664F480E481
S11334F09DE0A3E0B0E080938A0490938B04A093B2
S11335008C04B0938D0460918E0470918F0480912B
S11335109004909191040E94862B6B017C0120E021
S113352030E0A9010E94802B88234CF410928E0471
S113353010928F04109290041092910416C020E00F
S113354030E543E458E4C701B6010E94E52B1816A0
S113355064F480E49DE0A3E0B0E080938E04909353
S11335608F04A0939004B09391046091920470919D
S1133570930480919404909195040E94862B6B018E
S11335807C0120E030E0A9010E94802B88234CF4C8
S11335901092920410929304109294041092950441
S11335A016C020E038EB48E058E4C701B6010E9499
S11335B0E52B181664F480EE92E2A2E0B0E080936A
S11335C0920490939304A0939404B0939504C1FF40
S11335D004C08091A3048093D0048091850480FF6B
S11335E064C1909188049C3109F473C088F49430C8
S11335F009F441C030F4992301F1913009F048C134
S113360034C0943109F454C0953109F041C156C015
S11336109B3509F484C038F49E3109F455C09A35B9
S113362009F036C176C0913A09F417C1923A09F407
S113363021C19C3509F02CC178C0CAE9D4E0C88006
S1133640D980EA80FB8080E991E0A0E0B0E0888343
S11336509983AA83BB8340E060E08AE894E07ED942
S1133660C882D982EA82FB823AC340E060E08AE8F9
S113367094E074D934C32ADA8091860480FF2FC37E
S11336808091A1049091A204892B09F428C3C1EA72
S1133690D4E00E94620561E070E080E090E047DAE7
S11336A088819981019799838883892B91F717C31E
S11336B0E7E8F4E080818160808311C3E7E8F4E007
S11336C080818E7F80830BC340E060E08AE894E0D1
S11336D045D9FCD98091850482FF03C0B0D781E02D
S11336E001C080E09091850493FF07C00E94F423F9
S11336F08091850484FFF3C204C09091850494FFF3
S113370003C00E94C924EBC28111E9C20E9425258D
S1133710E6C2E6E8F4E080818F7B8083E0C2E6E8DD
S1133720F4E0808180648083DAC2D0D9209185045A
S113373022FF12C080918A0490918B04A0918C0482
S1133740B0918D048093900290939102A093920281
S1133750B093930281E001C080E023FF11C0809107
S11337608E0490918F04A0919004B0919104809361
S1133770940290939502A0939602B093970281E0ED
S113378024FF13C08091920490919304A091940417
S1133790B09195048093980290939902A0939A0211
S11337A0B0939B0225FD03C055C025FF11C0809135
S11337B0960490919704A0919804B09199048093F1
S11337C09C0290939D02A0939E02B0939F0242C0DC
S11337D0811140C01092960410929704109298049C
S11337E01092990410929C0210929D0210929E02D3
S11337F010929F02109292041092930410929404D7
S113380010929504109298021092990210929A02C2
S113381010929B0210928E0410928F0410929004C6
S113382010929104109294021092950210929602B2
S11338301092970210928A0410928B0410928C04B6
S113384010928D04109290021092910210929202A2
S1133850109293020E942C0742C282FDF0D68091FE
S1133860850483FDC1D78091850484FF38C20E94FA
S1133870C92435C282FD3FD78091850483FD0E940F
S113388050248091850484FF2AC20E94282527C2DF
S11338901F929F938AE294E09F938F930E949D27A7
S11338A00F900F900F900F901AC281FF18C2909141
S11338B08904E92FF0E0E23FF10508F004C2EC537B
S11338C0FF4F0C94352C02D960E070E080E00E9438
S11338D01B2A60E070E081E00E941B2A0E9494256C
S11338E0FEC10E947D2BE4D80E949425F894FFCF5A
S11338F08091D0048093D104F2C1E6E8F4E08081A1
S11339008F778083ECC1E6E8F4E08081806880836F
S1133910E6C10E94102A8111E2C140E060E080E02B
S113392090E01CD8DCC188230CF0D9C1C0FD04C0D0
S11339301092A2041092A10460919F047091A004BB
S11339408091A1040E941B2ACAC1C0FD06C082E066
S113395090E09093A2048093A1048091A1040E941A
S11339602D2ABDC188230CF0BAC160919F048091B7
S1133970A10413D3B4C188230CF0B1C180919F0476
S11339808093CF04ACC10E943D10E6E7F2E083814E
S11339908F9382818F9381818F9380818F93E2E7CC
S11339A0F2E083818F9382818F9381818F938081D1
S11339B08F93EEE6F2E083818F9382818F938181EE
S11339C08F9380818F93EAE6F2E083818F938281E3
S11339D08F9381818F9380818F93E6E6F2E08381D8
S11339E08F9382818F9381818F9380818F938BE3D7
S11339F094E09F938F930E949D278091CF042DB7CD
S1133A003EB72A5E3F4F0FB6F8943EBF0FBE2DBFA0
S1133A1082FF65C1E091BC043CE3E39FF001112403
S1133A20EB55FD4FDF019A9682A511969C91119753
S1133A3012962C91129713963C913F932F939F9338
S1133A408F93DF01509613964C9113974F931296D0
S1133A504C9112974F9311964C914F9340894F93E9
S1133A60DF011C9613964C9113974F9312964C9129
S1133A7012974F9311964C914F9344854F93DF01C6
S1133A80189613964C9113974F9312964C91129744
S1133A904F9311964C914F9340854F93DF011496A9
S1133AA013964C9113974F9312964C9112974F93F0
S1133AB011964C914F9344814F9343814F9342818C
S1133AC04F9341814F9340814F933F932F939F9303
S1133AD08F9389E594E09F938F930E949D270E9482
S1133AE031158DB79EB74E960FB6F8949EBF0FBE94
S1133AF08DBFF5C01F9282E08F931F9281E08F9358
S1133B001F928F9380E994E09F938F930E949D2747
S1133B102DB73EB7285F3F4F0FB6F8943EBF0FBE98
S1133B202DBFDDC040E060E080E090E00E94AE1474
S1133B30D6C0F0D76AE070E080E090E00E9497156C
S1133B40C0E0D1E08881869581701F928F938DE3C8
S1133B5095E09F938F930E949D27888181701F9287
S1133B608F9387E495E09F938F930E949D27C3E0F2
S1133B70D1E08881869581701F928F9381E595E0CD
S1133B809F938F930E949D27888181701F928F93AA
S1133B908BE595E09F938F930E949D2789B183FBCA
S1133BA0882780F91F928F9385E695E09F938F93E2
S1133BB00E949D278DB79EB744960FB6F8949EBF7A
S1133BC00FBE8DBF8CC0C0FD04C01092A204109221
S1133BD0A10488230CF083C040919F045091A00459
S1133BE0662757FD6095762F8091A104F4D377C0A2
S1133BF0C0FD04C01092A2041092A10488230CF00A
S1133C006EC040919F045091A004662757FD6095B3
S1133C10762F8091A104F5D362C0C0FD04C0109238
S1133C20A2041092A10488230CF059C040919F046F
S1133C305091A004662757FD6095762F8091A104CA
S1133C40F6D34DC0C0FD04C01092A2041092A1048A
S1133C5088230CF044C040919F045091A00466272F
S1133C6057FD6095762F8091A104F7D338C009D40D
S1133C7036C0C0FD04C01092A2041092A104809129
S1133C80A1049091A20454D42AC0882344F56091DD
S1133C909F047091A00481E00E941B2A20C080919F
S1133CA0CF048F778093CF048FE695E00E947C2623
S1133CB016C08091CF0480688093CF0488E795E094
S1133CC00E947C260CC01F929F9380E895E09F93EE
S1133CD08F930E949D270F900F900F900F90DF916C
S1133CE0CF91FF90EF90DF90CF9008952F923F9265
S1133CF04F925F926F927F929F92AF92BF92CF92B8
S1133D00DF92EF92FF920F931F93CF93DF9393E091
S1133D1094BD81E085BD25E025BD10926E0017BCE1
S1133D2018BC9093B000E1EBF0E0808397E09083BF
S1133D30109270001092B3001092B4008093A0000F
S1133D4099E09093A100109272001092A900109231
S1133D50A8001092AB001092AA00809320019093C7
S1133D6021011092730010922901109228011092DF
S1133D702B0110922A01912CC12CD12C760168942C
S1133D80D5F8412C512C3201689451F868942224BE
S1133D9027F833243394A92CB12CF501EE0FFF1F1F
S1133DA0EE0FFF1FEA0DFB1DE050FE4F0380F48170
S1133DB0E02D309709F463C01082EC3AF10509F460
S1133DC047C088F4E834F10539F128F4E734F10503
S1133DD009F055C01DC0E83AF10571F1EA3AF10560
S1133DE009F04DC02FC0E83281E0F807B9F140F482
S1133DF0E33BF105A9F0E43BF10509F040C016C02E
S1133E00EA32A1E0FA0781F1EC32F140C1F532C0A7
S1133E1084B5806884BD33C084B5806284BD2FC0FE
S1133E20E0EBF0E080818068808329C0A0EBB0E003
S1133E308C9180628C9323C0E0EAF0E080818068FA
S1133E4080831DC0A0EAB0E08C9180628C9317C07F
S1133E50E0EAF0E080818860808311C0A0E2B1E0F4
S1133E608C9180688C930BC0E0E2F1E080818062E9
S1133E70808305C0A0E2B1E08C9188608C93E50159
S1133E80C295D295D07FDC27C07FDC27CE0180503D
S1133E9090400E94572C9501220F331F8901000F77
S1133EA0111F000F111F000F111F021B130B0650CF
S1133EB01B4FF8016083718382839383CE018C5FEF
S1133EC09F4F0E94572CD80114966D937D938D9328
S1133ED09C931797CE01885F9F4F0E94572CF8013F
S1133EE06087718782879387CE01845F9F4F0E948A
S1133EF05C2CD8011D969C938E931C976EE070E009
S1133F00C8010E946F068C01CE01825F9F4F0E9400
S1133F105C2C08171907F9F0AA0CBB1CF501EE0F6D
S1133F20FF1FEE0FFF1FEE0FFF1FEA19FB09E650FC
S1133F30FB4FC082D182E282F38244825582668240
S1133F40778280E090E6A0E0B0E080879187A28746
S1133F50B38735862486939492E099121CCF2C98CB
S1133F60249AE2E0F1E080818F7D8083E1E0F1E05A
S1133F70808180628083DF91CF911F910F91FF90A8
S1133F80EF90DF90CF90BF90AF909F907F906F9015
S1133F905F904F903F902F900895CF93C62F82301B
S1133FA008F066C0282F30E094E1899FF0011124C5
S1133FB0EE52FB4F638BF901EE0FFF1FEE0FFF1F55
S1133FC0E20FF31FE050FE4F0380F481E02D3097A1
S1133FD0B1F060839091CF0490FF48C090811F920C
S1133FE09F931F928F9380EE95E09F938F93A5D715
S1133FF00F900F900F900F900F900F9037C0683074
S1134000D8F0D901AA0FBB1FAA0FBB1F2A0F3B1F51
S1134010D901A050BE4FED91FC911197408121E050
S113402030E0C90112960C9002C0880F991F0A94BF
S1134030E2F7842B80831AC0D901AA0FBB1FAA0FF1
S1134040BB1F2A0F3B1FD901A050BE4FED91FC911D
S11340501197208181E090E012960C9002C0880FA5
S1134060991F0A94E2F7809582238083C11152D567
S1134070CF9108952F923F924F925F926F927F92C9
S11340808F929F92AF92BF92CF92DF92EF92FF9264
S11340900F931F93CF93DF93CDB7DEB72F970FB650
S11340A0F894DEBF0FBECDBF8E87823008F06CC19E
S11340B02115310519F460E070DF66C13901641A15
S11340C0750A2E85822F90E034E1239FF00111249C
S11340D0EE52FB4F62899C01220F331FDC01AA0FB1
S11340E0BB1FAA0FBB1FAA0FBB1FA20FB31FA60F94
S11340F0B11DAA0FBB1FAC52BB4F4D935C936F5FB6
S11341006770628B60817181660D771D7183608336
S1134110F901EE0FFF1FEE0FFF1FEE0FFF1FE21B53
S1134120F30BE650FB4F24853585261737075CF4DF
S113413064E1689FF001699FF00D1124EE52FB4F7A
S11341403183208310C0319521953109621773079B
S113415054F464E1689FF001699FF00D1124EE525C
S1134160FB4F3183208324E1289F8001299F100D78
S113417011240E521B4FD80152966C919C01220FB0
S1134180331FFC01EE0FFF1FEE0FFF1FEE0FFF1F8B
S1134190E20FF31FE60FF11DEE0FFF1FEC52FB4F72
S11341A080819181FC01E41BF50BFA83E983F90119
S11341B0EE0FFF1FEE0FFF1FEE0FFF1FE21BF30BAF
S11341C09F0126503B4F3B872A87F901F081FB83EF
S11341D0F901F181FC83F901F281FD83F901F38195
S11341E0FE83D3012B813C814D815F2F0E94512C92
S11341F06B017C01D801BC91BF83F8011181EA8570
S1134200FB850481F581F887EA85FB85F681F987CA
S1134210EA85FB855780AB2FB12F202F3885498540
S1134220552D0E94512C4B015C0140843184228421
S1134230F385FF87A981BA81242D332D422D5F2F69
S11342400E94512CA7019601280D391D4A1D5B1DA2
S1134250260F371F481F591F2A873B874C875D87C6
S1134260552324F421503C4F4F4F5F4F012E1AE049
S113427055954795379527951A95D1F7102D2F3FCA
S113428031054105510509F024F455232CF02A8702
S113429004C0AFEFAA8701C01A86F091CF04F0FFE3
S11342A070C01F92BA85BF935F934F933F932F9330
S11342B09B01AC01992324F421503C4F4F4F5F4F95
S11342C0DA01C901072E7AE0B595A79597958795E8
S11342D07A95D1F7702DBF93AF939F938F93EF850A
S11342E0EF932F923F924F92FA81FF9329812F935C
S11342F0D501C401BB2024F481509C4FAF4FBF4F64
S1134300072E7AE0B595A795979587957A95D1F775
S1134310702DBF93AF939F938F935F92E985EF9333
S1134320F885FF930F931F93EF81EF93D701C60195
S1134330FF2024F481509C4FAF4FBF4F072E7AE0EB
S1134340B595A795979587957A95D1F7702DBF93D5
S1134350AF939F938F93FE81FF93ED81EF93FC8145
S1134360FF93EB81EF937F926F927F926F9281E93B
S113437095E09F938F93E1D50FB6F894DEBF0FBEFF
S1134380CDBF6A858E8509DE2F960FB6F894DEBF01
S11343900FBECDBFDF91CF911F910F91FF90EF9092
S11343A0DF90CF90BF90AF909F908F907F906F9051
S11343B05F904F903F902F9008958091E504811174
S11343C006C08091F904882321F080E0089580E0FC
S11343D008958FEF0895823098F4282F30E0220F4B
S11343E0331FF901EE0FFF1FEE0FFF1FEE0FFF1F2C
S11343F0E21BF30BE650FB4F4083518362837383CC
S11344000895823098F4282F30E0220F331FF901E9
S1134410EE0FFF1FEE0FFF1FEE0FFF1FE21BF30B4C
S1134420E650FB4F44835583668377830895823037
S113443098F4282F30E0220F331FF901EE0FFF1FED
S1134440EE0FFF1FEE0FFF1FE21BF30BE650FB4FB7
S113445040875187628773870895823088F4282FB4
S113446030E0220F331FF901EE0FFF1FEE0FFF1F85
S1134470EE0FFF1FE21BF30BE650FB4F55874487FB
S11344800895FF920F931F93CF93DF93F12CCF2DB9
S1134490D0E0CE01880F991F8C01000F111F000F6F
S11344A0111F000F111F081B190B06501B4FF80199
S11344B04081518162817381C295D295D07FDC277E
S11344C0C07FDC27CE01805090400E94612CF8010F
S11344D04481558166817781CE018C5F9F4F0E9414
S11344E0612CF8014085518562857385CE01885F12
S11344F09F4F0E94612CF80164857585CE01845F0D
S11345009F4F0E94662C6EE070E0C8010E946F0607
S1134510BC01CE01825F9F4F0E94662CF394F2E0AF
S1134520FF12B5CFDF91CF911F910F91FF900895A6
S1134530CF93DF93D82FC92F282F392F220F331F62
S1134540C901880F991F880F991F880F991F821B13
S1134550930B6EE070E086509B4F0E946F069F9312
S11345608F932D2F3C2F220F331FF901EE0FFF1FC6
S1134570EE0FFF1FEE0FFF1FE21BF30BE650FB4F86
S113458085858F9384858F932D2F3C2F220F331F86
S1134590D901AA0FBB1FAA0FBB1FAA0FBB1FA21BC7
S11345A0B30BA650BB4FFD01389683818F93828154
S11345B08F9381818F9318968C918F932D2F3C2FFD
S11345C0220F331FD901AA0FBB1FAA0FBB1FAA0FAB
S11345D0BB1FA21BB30BA650BB4FFD0134968381B6
S11345E08F9382818F9381818F9314968C918F9373
S11345F02D2F3C2F220F331FF901EE0FFF1FEE0F5B
S1134600FF1FEE0FFF1FE21BF30BE650FB4F8381EE
S11346108F9382818F9381818F9380818F938EEE8C
S113462095E09F938F9389D48DB79EB742960FB62A
S1134630F8949EBF0FBE8DBFDF91CF910895CF93A5
S1134640DF93CDB7DEB765970FB6F894DEBF0FBE24
S1134650CDBF85E1E0E9F2E0DE01119601900D9213
S11346608A95E1F780EC9DEBA0EFBFEF89839A83F5
S1134670AB83BC8388EC90E0A0E0B0E0898B9A8B9C
S1134680AB8BBC8B41E061E0CE0101960E94AE147D
S113469080E492E4AFE0B0E089839A83AB83BC8387
S11346A082E390E0A0E0B0E0898B9A8BAB8BBC8B6B
S11346B040E061E0CE0101960E94AE140E946615AE
S11346C010928A0410928B0410928C0410928D0420
S11346D01092900210929102109292021092930200
S11346E00E942C0765960FB6F894DEBF0FBECDBFAF
S11346F0DF91CF910895CF92DF92EF92FF92CF9303
S1134700DF93CDB7DEB765970FB6F894DEBF0FBE63
S1134710CDBF85E1E0E9F2E0DE01119601900D9252
S11347208A95E1F780E492E4AFE0B0E089839A836C
S1134730AB83BC830F2EF8ECCF2ED12CE12CF12CC3
S1134740F02DC98ADA8AEB8AFC8A41E061E0CE0165
S113475001960E94AE1480EC9DEBA0EFBFEF89831D
S11347609A83AB83BC8382E390E0A0E0B0E0898BC2
S11347709A8BAB8BBC8B40E061E0CE0101960E942A
S1134780AE140E94661580E49DE0A3E0B0E080933F
S11347908A0490938B04A0938C04B0938D0480932B
S11347A0900290939102A0939202B09393020E947C
S11347B02C0719821A821B821C82C98ADA8AEB8A24
S11347C0FC8A40E060E0CE0101960E94AE1465963A
S11347D00FB6F894DEBF0FBECDBFDF91CF91FF902F
S11347E0EF90DF90CF900895CF93DF93CDB7DEB7EE
S11347F065970FB6F894DEBF0FBECDBF85E1E0E943
S1134800F2E0DE01119601900D928A95E1F780ECB9
S11348109DEBA0EFBFEF8D839E83AF83B88788ECB9
S113482090E0A0E0B0E0898B9A8BAB8BBC8B41E02D
S113483062E0CE0101960E94AE1480E492E4AFE0FF
S1134840B0E08D839E83AF83B88782E390E0A0E0DD
S1134850B0E0898B9A8BAB8BBC8B40E062E0CE01DD
S113486001960E94AE140E94661510928E04109256
S11348708F0410929004109291041092940210925A
S1134880950210929602109297020E942C07659648
S11348900FB6F894DEBF0FBECDBFDF91CF91089560
S11348A0CF92DF92EF92FF92CF93DF93CDB7DEB733
S11348B065970FB6F894DEBF0FBECDBF85E1E0E982
S11348C0F2E0DE01119601900D928A95E1F780E401
S11348D092E4AFE0B0E08D839E83AF83B8870F2E60
S11348E0F8ECCF2ED12CE12CF12CF02DC98ADA8AE8
S11348F0EB8AFC8A41E062E0CE0101960E94AE148C
S113490080EC9DEBA0EFBFEF8D839E83AF83B887D0
S113491082E390E0A0E0B0E0898B9A8BAB8BBC8BF8
S113492040E062E0CE0101960E94AE140E9466153A
S113493080E49DE0A3E0B0E080938E0490938F0424
S1134940A0939004B0939104809394029093950261
S1134950A0939602B09397020E942C071D821E8298
S11349601F821886C98ADA8AEB8AFC8A40E060E0F2
S1134970CE0101960E94AE1465960FB6F894DEBF80
S11349800FBECDBFDF91CF91FF90EF90DF90CF901E
S11349900895CF93DF93CDB7DEB765970FB6F8943C
S11349A0DEBF0FBECDBF85E1E0E9F2E0DE01119686
S11349B001900D928A95E1F780EC9DEBA0EFBFEF9B
S11349C089879A87AB87BC8784E690E0A0E0B0E053
S11349D0898B9A8BAB8BBC8B41E064E0CE01019652
S11349E00E94AE1480E492E4AFE0B0E089879A8735
S11349F0AB87BC8781E090E0A0E0B0E0898B9A8B24
S1134A00AB8BBC8B40E064E0CE0101960E94AE14F7
S1134A100E946615109292041092930410929404CA
S1134A2010929504109298021092990210929A0290
S1134A3010929B020E942C0765960FB6F894DEBF75
S1134A400FBECDBFDF91CF910895F9DDCDDEA1CFAB
S1134A50089585E880936400E5E6F0E0808186604F
S1134A60808380818260808380E880BFA1E0B1E0A0
S1134A708C918D7F8C93E2E0F1E080818D7F808347
S1134A808C918E7F8C9380818E7F8083A4E0B1E0B3
S1134A908C918D7F8C93E5E0F1E080818D7F808324
S1134AA08C918E7F8C9380818E7F8083ABE0B1E08C
S1134AB08C91877F8C93EAE0F1E080818860808329
S1134AC08C918D7F8C9380818260808353985B98D6
S1134AD014980C9A16980E9A089529D00E94641678
S1134AE0B8DF9FD503D90E9498060E94FD0424D301
S1134AF0789480E196E000C1F0DFA1D0882339F0FA
S1134B000E944B14811103C0A1D00E9472160E940E
S1134B106205F3CF8091C004811103C081E08093CA
S1134B20C0041092BF0408951092C004089582E056
S1134B308093C00080E190E09093C5008093C4000E
S1134B40E1ECF0E088E1808386E08093C20080811C
S1134B50806A808308951F920F920FB60F921124DA
S1134B600BB60F922F933F938F939F93EF93FF93E3
S1134B702FB78091C3043091C40490E0831B910942
S1134B8001978F739927892B79F0E091C404F0E0A1
S1134B908091C600EA5EFA4F80838091C4048F5FDF
S1134BA08F738093C40402C08091C6002FBFFF910D
S1134BB0EF919F918F913F912F910F900BBE0F908A
S1134BC00FBE0F901F9018951F920F920FB60F9261
S1134BD011240BB60F922F933F938F939F93EF93D0
S1134BE0FF932FB78091C2043091C10490E0831BDE
S1134BF091098F739927892B79F0E091C104F0E032
S1134C00EA5AFA4F80818093C6008091C1048F5F75
S1134C108F738093C10405C0E1ECF0E080818F7D47
S1134C2080832FBFFF91EF919F918F913F912F919F
S1134C300F900BBE0F900FBE0F901F901895809190
S1134C40C4049091C304891B8F7308958091C40494
S1134C502091C30490E0821B91098F739927892BBB
S1134C6069F0E091C304F0E0EA5EFA4F808190912C
S1134C70C3049F5F9F739093C304089580E00895D5
S1134C800FB607FE1AC02091C1049091C20430E00F
S1134C90291B3109215031092F733327232B99F311
S1134CA0E091C204F0E0EA5AFA4F80838091C20492
S1134CB08F5F8F738093C20419C02091C1049091B7
S1134CC0C20430E0291B3109215031092F733327E5
S1134CD0232B61F0E091C204F0E0EA5AFA4F80839A
S1134CE08091C2048F5F8F738093C204E1ECF0E083
S1134CF080818062808308951F93CF93DF93EC01BA
S1134D00FC018491882349F011E0BADFFE01E10F30
S1134D10F11D1F5F84918111F8CFDF91CF911F9115
S1134D2008958F708A3010F4805DAACF895CA8CF73
S1134D30CF93C82F82958F70F4DF8C2F8F70F1DFA3
S1134D40CF910895CF93C82F892FF2DF8C2FF0DFF6
S1134D50CF910895CF92DF92EF92FF926B017C0185
S1134D60C701F0DFC601EEDFFF90EF90DF90CF9038
S1134D700895CF92DF92EF92FF92CF93DF936B016E
S1134D807C01C1148AECD8068AE9E8068BE3F806AC
S1134D9078F4EEE2F2E0C8E0B291A29192918291AD
S1134DA0C816D906EA06FB0638F4C150A9F704C0B0
S1134DB0C9E002C0C82F01C0D0E0EC2FF0E0EE0F34
S1134DC0FF1FEE0FFF1FE65FFD4F4081518162819F
S1134DD07381C416D506E606F70660F08D2FC41A53
S1134DE0D50AE60AF70A8F5FC416D506E606F70663
S1134DF0B0F701C08D2F805D43DF8C2F8150C1112E
S1134E00D9CFDF91CF91FF90EF90DF90CF900895AD
S1134E10CF92DF92EF92FF926B017C01992354F4BD
S1134E208DE22EDFF094E094D094C094C11CD11C88
S1134E30E11CF11CC701B6019CDFFF90EF90DF90ED
S1134E40CF900895BF92CF92DF92EF92FF920F938B
S1134E501F93CF93DF936B017C01C42FC1148AECA1
S1134E60D8068AE9E8068BE3F80678F4EEE2F2E085
S1134E70D8E0B291A29192918291C816D906EA061D
S1134E80FB0620F4D150A9F701C0D9E0DC1720F4C7
S1134E90DC2F02C0D82F01C0B12CED2FF0E0EE0FB3
S1134EA0FF1FEE0FFF1FE65FFD4F0081118122817E
S1134EB03381C016D106E206F30660F08B2DC01ACA
S1134EC0D10AE20AF30A8F5FC016D106E206F3069E
S1134ED0B0F701C08B2D805DD3DEDC1302C08EE2FF
S1134EE0CFDE8D2F8150D111D5CFDF91CF911F917E
S1134EF00F91FF90EF90DF90CF90BF900895CF92E5
S1134F00DF92EF92FF92CF936B017C01C42F992320
S1134F1054F48DE2B5DEF094E094D094C094C11CB6
S1134F20D11CE11CF11C4C2FC701B6018BDFCF91C2
S1134F30FF90EF90DF90CF9008958F929F92AF9261
S1134F40BF92CF92DF92EF92FF920F931F93CF9372
S1134F50DF93CDB7DEB77E0182E1E80EF11C08894C
S1134F601989D12C6894AA24A1F8B12C992493947A
S1134F706894882482F8A5C0DD2009F499C081379B
S1134F8009F485C048F4843671F18C3609F494C070
S1134F90833609F08AC046C0853741F0883709F462
S1134FA04BC0833709F081C0D92C89C0E4E0DE12FC
S1134FB00DC06701F4E0CF0ED11CF701608171814F
S1134FC082819381D6DE7601DB2C79C06701F2E021
S1134FD0CF0ED11CF7016081718180E090E0C9DEC1
S1134FE07601DB2C6CC0F4E0DF120DC0670184E0B5
S1134FF0C80ED11CF701608171818281938108DF21
S11350007601DB2C5CC06701F2E0CF0ED11CF70106
S113501060817181882777FD8095982FF9DE76016C
S1135020DB2C4DC06701F2E0CF0ED11CF70180816B
S113503027DE7601DB2C43C08AE196E05DDEF4E0F6
S1135040DF120DC0670184E0C80ED11CF701608136
S11350507181828193817EDE7601DB2C30C0F1E0A8
S1135060DF120AC0670182E0C80ED11CF7018081FB
S11350705FDE7601DB2C23C06701F2E0CF0ED11C8A
S1135080F701808191815EDE7601DB2C18C0670117
S1135090F4E0CF0ED11CF70160817181828193818C
S11350A043E02DDF7601DB2C0AC0EADDDB2C07C0F0
S11350B0853221F0E5DD03C0D82C01C0DA2C0F5F66
S11350C01F4FF8018491811157CFDF91CF911F9128
S11350D00F91FF90EF90DF90CF90BF90AF909F9093
S11350E08F90089590E0FC01EE0FFF1FEE0FFF1F5D
S11350F0EE0FFF1F8E0F9F1FFC01EA56FA4F8181AE
S113510092819C012370332739E1239F202D1124A0
S11351101F922F9396958795969587959F938F9336
S11351208FEA99E09F938F9308DF0F900F900F9071
S11351300F900F900F90089508954F925F926F9281
S11351407F929F92AF92BF92CF92DF92EF92FF92A3
S11351500F931F93CF93DF9380919D0590919E05AC
S1135160009731F0019790939E0580939D05D7C0D9
S113517080E00E9454056C01C1E2D6E0FE018591F5
S11351809491C816D90698F082E090E0982E8C018C
S1135190EC01CC0FDD1FCC0FDD1FC35ED94FFE0128
S11351A025913491C216D30608F07FC004C001E0F3
S11351B010E0992493948091CF0480FF14C01F932E
S11351C00F93DF92CF921F928DE08F938DE499E03D
S11351D09F938F93B2DE8DB79EB708960FB6F8945F
S11351E09EBF0FBE8DBFE12CF12CC8010197880F23
S11351F0991F880F991FFC01E35EF94FA590B490A5
S1135200F801EE0FFF1FEE0FFF1FE15EF94FA591AE
S1135210B491FE0105911491FC01E15EF94FC59131
S1135220D491A70196012A193B09410951092FD3A9
S11352302B013C01C801A0E0B0E09C01AD012C1998
S11352403D094E095F09DE0122D3640D751D861DDB
S1135250971D98012A193B0940E050E0C9D2690121
S11352608091CF0480FF27C089019A010370112720
S11352702227332769E1609FC001619F900D1124AB
S11352809F938F93C60196958795969587959F933F
S11352908F938FE699E09F938F934FDE0F900F903B
S11352A00F900F900F900F9006C09394019686363E
S11352B0910509F06BCF8091CF0480FF0BC01F9242
S11352C01F928BE799E09F938F9337DE0F900F9097
S11352D00F900F9096E6991202C0C12CD12C109217
S11352E09E0510929D05E7E9F5E09601A6E6B0E07B
S11352F0C2D26B017C0120813181AAE9B3E0BBD227
S1135300C60ED71EE81EF91E0B2EBAE0F594E794DC
S1135310D794C794BA95D1F7B02DD182C082809129
S11353209705909198052091990530919A05821BD3
S1135330930B8D3E2FEF920784F0449774F4809181
S11353409B0590919C0580322CE19207B8F401965C
S113535090939C0580939B0511C080919B0590912F
S11353609C058B30910530F00A9790939C058093AF
S11353709B0504C010929C0510929B0520919905F1
S113538030919A05409197055091980560E080E02E
S11353900E943A208091CF0480FF27C08091970516
S11353A090919805AC014370552769E1649F900181
S11353B0659F300D11243F932F939C0136952795BB
S11353C0369527953F932F939F938F931F921F9208
S11353D087E899E09F938F93B0DD8DB79EB70A96C7
S11353E00FB6F8949EBF0FBE8DBF8091CF0480FF8F
S11353F007C08EE999E09F938F939FDD0F900F90E4
S1135400DF91CF911F910F91FF90EF90DF90CF909C
S1135410BF90AF909F907F906F905F904F90089552
S113542080919B0590919C058037974110F08FEFF8
S1135430089580E0089581110FC08091990590919D
S11354409A058617970741F070939A05609399051A
S113545010929C0510929B050895823099F480EA7D
S113546099E09F938F9369DD80E03CDE83EA99E0C5
S11354709F938F9362DD81E035DE0F900F900F9044
S11354800F90089581110DC01F921F9287EA99E031
S11354909F938F9352DD80E025DE0F900F900F9045
S11354A00F9008951F920F920FB60F9211240BB60E
S11354B00F922F938F939F93EF93FF932FB7EAEA63
S11354C0F0E0808191819358918380838091CA0414
S11354D0982F9E5F9A3018F49093CA0420C0885085
S11354E08093CA0481E08093C7048091C9048F5FCC
S11354F0893118F48093C90412C01092C90481E060
S11355008093C6048091C8048F5F843018F480931C
S1135510C80405C01092C80481E08093C5042FBF5D
S1135520FF91EF919F918F912F910F900BBE0F9050
S11355300FBE0F901F9018951F920F920FB60F92E7
S113554011240BB60F922F933F934F935F936F9356
S11355507F938F939F93AF93BF93EF93FF934FB733
S113556080919F059091A005A091A105B091A205FD
S1135570009721E0A207B10540F4E2E7F0E0808162
S11355808D7F80830E94071539C0119780939F05F2
S11355909093A005A093A105B093A205009721E0E4
S11355A0A207B10548F4E8EAF0E020813181820FD6
S11355B0931F9183808321C080319742A140B1051C
S11355C0E0F4E8EAF0E08081918180519742918390
S11355D0808380919F059091A005A091A105B09131
S11355E0A205805F984DAF4FBF4F80939F05909366
S11355F0A005A093A105B093A2054FBFFF91EF9121
S1135600BF91AF919F918F917F916F915F914F91D6
S11356103F912F910F900BBE0F900FBE0F901F90D4
S113562018951092A00081E08093A10080E09DE78E
S11356309093AB008093AA0084E080937200089555
S11356400F931F93E2E7F0E0208124602083F89415
S11356504091A8005091A90000919F051091A005C8
S11356602091A1053091A205012B022B032B21F4DB
S11356704091A4005091A50060939F057093A005EC
S11356808093A1059093A2056115710521E082071D
S1135690910538F4640F751F7093A9006093A800F6
S11356A024C06031774281409105D8F4405157427B
S11356B05093A9004093A80080919F059091A00564
S11356C0A091A105B091A205805F984DAF4FBF4F47
S11356D080939F059093A005A093A105B093A20584
S11356E004C05093A9004093A800E2E7F0E0808151
S11356F0826080831F910F91089510927200089523
S113570040D008F481E00895E89409C097FB3EF482
S113571090958095709561957F4F8F4F9F4F9923FA
S1135720A9F0F92F96E9BB279395F6958795779578
S11357306795B795F111F8CFFAF4BB0F11F460FF38
S11357401BC06F5F7F4F8F4F9F4F16C0882311F090
S113575096E911C0772321F09EE8872F762F05C0A4
S1135760662371F096E8862F70E060E02AF09A953F
S1135770660F771F881FDAF7880F9695879597F934
S11357800895990F0008550FAA0BE0E8FEEF1616CE
S11357901706E807F907C0F012161306E407F50721
S11357A098F0621B730B840B950B39F40A2661F095
S11357B0232B242B252B21F408950A2609F4A14038
S11357C0A6958FEF811D811D0895DBDF08F48FEF0F
S11357D00895DB018F939F935AD0BF91AF91A29FFD
S11357E0800D911DA39F900DB29F900D11240895DB
S11357F0A1E21A2EAA1BBB1BFD010DC0AA1FBB1FD1
S1135800EE1FFF1FA217B307E407F50720F0A21B42
S1135810B30BE40BF50B661F771F881F991F1A94AF
S113582069F760957095809590959B01AC01BD01D9
S1135830CF010895052E97FB16F4009406D057FD6A
S11358400CD0D6DF07FC09D07EF490958095709536
S113585061957F4F8F4F9F4F089550954095309598
S113586021953F4F4F4F5F4F0895EE0FFF1F059057
S1135870F491E02D1994A29FB001B39FC001A39F9E
S113588001D0B29F700D811D1124911D0895F3DF85
S1135890A59F900DB49F900DA49F800D911D112480
S11358A00895B7FFF4CFF3DF821B930B0895A6E1AD
S11358B0B0E044E050E00FC0A8E1B0E042E050E0C6
S11358C00AC0242F17D0252F15D000C012D0272F9F
S11358D011C0DC01CB01FC01F999FECF06C0F2BD79
S11358E0E1BDF89A319600B40D9241505040B8F79A
S11358F00895262FF999FECF1FBA92BD81BD20BD10
S11359000FB6F894FA9AF99A0FBE01960895F8948E
S1055910FFCFC3
S1135912250004B300020105AC00010000000A00E6
S1135922000064000000E803000010270000A086C5
S1135932010040420F008096980000E1F50500CA7C
S10559429A3B8A
S9030000FC
