S01700004763634170706C69636174696F6E312E737265635B
S113000009C3000028C3000026C300000C94530F4A
S11300100C949A0F20C300001EC300001CC30000F0
S11300201AC3000018C3000016C3000014C3000064
S113003012C3000010C300000EC300000CC3000074
S11300400AC3000008C3000006C3000004C3000084
S113005002C3000000C30000FEC20000FCC2000096
S1130060FAC200000C9419200C945220F4C200002F
S1130070F2C2000011C30000EEC20000ECC2000096
S1130080EAC20000E8C20000E6C20000E4C20000C8
S1130090E2C20000E0C20000DEC20000DCC20000D8
S11300A0DAC20000D8C200000C94E7230C94A82301
S11300B0D2C20000D0C20000CEC20000CCC20000F8
S11300C0CAC20000C8C20000C6C20000C4C2000008
S11300D0C2C20000C0C20000BEC20000BCC2000018
S11300E0BAC20000506F733A20256C712C256C71D4
S11300F02C256C712C256C712C256C750A004473AD
S1130100743A20256C712C256C712C256C712C256E
S11301106C712C256C750A000A7B4444415F435280
S1130120454154453A205B00256C642C256C642CB5
S1130130256C642C256C645D205B0074733A256C1B
S113014075002C64733A256C75005D207D0A00549B
S1130150656D702061636869657665640A0057613E
S11301606974696E6720666F722074617267657462
S11301702074656D700A005125642F256425630081
S11301806F6B20007273204E256C64204578706577
S11301906374656420636865636B73756D2025649F
S11301A00A00453A2042616420472D636F6465204C
S11301B0256400583A256C712C593A256C712C5AD7
S11301C03A256C712C453A256C712C463A256C7590
S11301D0004649524D574152455F4E414D453A54B0
S11301E06561637570204649524D574152455F55CC
S11301F0524C3A687474703A2F2F67697468756248
S11302002E636F6D2F747269666669642F5465611D
S11302106375705F4669726D776172652F20505205
S11302204F544F434F4C5F56455253494F4E3A310A
S11302302E30204D414348494E455F545950453A6C
S11302404D656E64656C2045585452554445525F63
S1130250434F554E543A25642054454D505F534501
S11302604E534F525F434F554E543A2564204845F0
S1130270415445525F434F554E543A256400785FCC
S11302806D696E3A25642000785F6D61783A256463
S11302902000795F6D696E3A25642000795F6D6195
S11302A0783A256420007A5F6D696E3A25642000EF
S11302B0453A20426164204D2D636F6465202564B6
S11302C00073746172740A6F6B0A00307800010065
S11302D0FC0C0B00310615002D051F00A604290097
S11302E04D0433000C043D00D9034700AF03510013
S11302F08C035B006D03650052036F003A037900C1
S11303002403830011038D00FF029700EE02A10075
S1130310DE02AB00D002B500C202BF00B502C900C4
S1130320A902D3009D02DD009202E7008802F100D9
S11303307E02FB00740205016B020F0161021901C8
S11303405902230150022D014802370140024101A4
S113035038024B013102550129025F012202690171
S11303601B02730114027D010E0287010702910131
S113037000029B01FA01A501F401AF01ED01B901ED
S1130380E701C301E101CD01DB01D701D501E101A1
S1130390D001EB01CA01F501C401FF01BE0109024C
S11303A0B9011302B3011D02AE012702A8013102F3
S11303B0A3013B029D01450298014F02920159029B
S11303C08D01630287016D02820177027C01810243
S11303D077018B02710195026C019F026601A902EB
S11303E06101B3025B01BD025501C7025001D10294
S11303F04A01DB024401E5023E01EF023801F90241
S1130400320103032C010D03260117031F012103ED
S113041019012B03120135030B013F0304014903A6
S1130420FD005303F5005D03EE006703E60071036E
S1130430DD007B03D4008503CB008F03C100990347
S1130440B700A303AC00AD03A000B7039300C1033E
S11304508400CB037300D5036000DF034900E90384
S11304602B00F30300000100F60C0B002E06150010
S11304702B051F00A40429004C0433000B043D0089
S1130480D8034700AE0351008A035B006C03650088
S113049051036F00390379002303830010038D0097
S11304A0FE029700ED02A100DD02AB00CF02B50011
S11304B0C102BF00B402C900A802D3009C02DD003F
S11304C09102E7008702F1007D02FB00730205013F
S11304D06A020F0160021901580223014F022D0123
S11304E0470237013F02410137024B0130025501F7
S11304F028025F01210269011A02730113027D01BE
S11305000D0287010602910100029B01F901A50178
S1130510F301AF01ED01B901E701C301E001CD0130
S1130520DB01D701D501E101CF01EB01C901F501DF
S1130530C301FF01BE010902B8011302B2011D0289
S1130540AD012702A7013102A2013B029C01450231
S113055097014F02910159028C01630286016D02D9
S1130560810177027C01810276018B02710195027F
S11305706B019F026601A9026001B3025A01BD0228
S11305805501C7024F01D1024901DB024301E502D3
S11305903D01EF023801F902310103032B010D0380
S11305A0250117031F01210318012B031101350332
S11305B00B013F0304014903FC005303F5005D03F1
S11305C0ED006703E5007103DD007B03D4008503C0
S11305D0CB008F03C1009903B600A303AB00AD03A6
S11305E09F00B7039200C1038300CB037300D503BC
S11305F06000DF034800E9032A00F2030400543AD0
S11306000020423A00545B2573755D3A0025752E2F
S11306102575000011241FBECFEFD1E2DEBFCDBF90
S113062000E00CBF12E0A0E0B2E0EAEBFBE400E083
S11306300BBF02C007900D92A233B107D9F725E092
S1130640A2E3B2E001C01D92A33AB207E1F70E940F
S1130650EA1F0C94DB25D4CCE4E6F0E080818E7FA5
S1130660808380E480937C00EAE7F0E087E880837D
S113067010927B001092B30480B380BBA7E0B1E07A
S11306808C918F7D8C9310927E0080E280937D000C
S1130690808188648083089578941F920F920FB6A6
S11306A00F9211240BB60F922F938F939F93EF9376
S11306B0FF932FB7E091B304F0E08091780090911C
S11306C07900EE0FFF1FEE5CFD4F91838083109243
S11306D0B30485E480937C0080917B0088608093E0
S11306E07B0080917A00806480937A002FBFFF9111
S11306F0EF919F918F912F910F900BBE0F900FBE92
S11307000F901F9018959FB7F894E82FF0E0EE0F24
S1130710FF1FEE5CFD4F208131819FBFC901089509
S1130720FF920F931F93CF93DF93C4EED0E08CE33B
S1130730F82E0EEF10E0C8C00E94A122BFC00E9494
S1130740041D882309F4B4C08091BF04893718F0CC
S11307500E940220ADC09FB7F8948091BF048F5FC0
S11307608093BF049FBFA4C08091CF0482FF9EC02A
S11307700E94640E809179028F93809178028F9306
S1130780809177028F93809176028F938091750286
S11307908F93809174028F93809173028F938091D1
S11307A072028F93809171028F93809170028F9364
S11307B080916F028F9380916E028F9380916D026E
S11307C08F9380916C028F9380916B028F938091B1
S11307D06A028F93809169028F93809168028F934C
S11307E0809167028F93809166028F93DF93CF93FA
S11307F00E94D121E091BC04FE9EF0011124EB552E
S1130800FD4FDF01509613968C9113978F93129698
S11308108C9112978F9311968C918F9380898F93DB
S1130820DF011C9613968C9113978F9312968C91DB
S113083012978F9311968C918F9384858F93DF01F8
S1130840189613968C9113978F9312968C911297F6
S11308508F9311968C918F9380858F93DF011496DB
S113086013968C9113978F9312968C9112978F9362
S113087011968C918F9384818F9383818F9382813E
S11308808F9381818F9380818F931F930F930E9405
S1130890D1218DB79EB78C960FB6F8949EBF0FBE2C
S11308A08DBF0E949D128AE00E94AE201092C50462
S11308B08091C504811158CF1092C6048091C6045A
S11308C081113DCF1092C7048091C704811134CFA8
S11308D0DF91CF911F910F91FF900895680F791FB9
S11308E02DEE3EEF1AC0FC014191CF012427422F87
S11308F042954227042E469546954025042E46955A
S113090040254770022E232F469507944795302D96
S1130910242706944795302524278617970719F727
S1130920C90108958091A0029091A102A091A20210
S1130930B091A302892B8A2B8B2BA1F481E090E048
S1130940A0E0B0E080939A0490939B04A0939C044D
S1130950B0939D048093A0029093A102A093A2025D
S1130960B093A30281E090E0A0E0B0E080935C0249
S113097090935D02A0935E02B0935F0280E093E6E1
S1130980A8E5B0E08093580290935902A0935A02CC
S1130990B0935B0281E08093800080938100109289
S11309A06F00109289001092880010928B001092B0
S11309B08A0010928D0010928C00909180009068B3
S11309C09093800080939000809391001092710026
S11309D0109299001092980010929B0010929A0025
S11309E010929D0010929C008091900088608093EA
S11309F090006D9A259A269A279A2E9A2F9A2E98C5
S1130A002F9852985A9A53985B9A80916900806300
S1130A108093690080916900806C80936900EA9AF0
S1130A20EB9A80910A018F7E80930A0180910B01D9
S1130A30806180930B0180910A018B7F80930A016E
S1130A4080910B01846080930B019898A09A809107
S1130A500A018F7B80930A0180910B01806480934B
S1130A600B010895AF92BF92CF92DF92EF92FF9263
S1130A700F931F9360919002709191028091920262
S1130A809091930220E4A22E22E4B22E2FE0C22EF3
S1130A90D12C10E2E12E11EAF12E07E010E020E063
S1130AA030E0A9010E94DF0F60937B0270937C0207
S1130AB080937D0290937E026091940270919502DE
S1130AC0809196029091970220E030E0A9010E9463
S1130AD0DF0F60937F027093800280938102909372
S1130AE08202609198027091990280919A02909189
S1130AF09B0218E1E12E17E1F12E05E010E023E05E
S1130B0030E040E050E00E94DF0F60938302709376
S1130B108402809385029093860260919C02709176
S1130B209D0280919E0290919F021CE1E12E1BE2A6
S1130B30F12E00E010E020E030E0A9010E94DF0F78
S1130B4060938702709388028093890290938A024B
S1130B501F910F91FF90EF90DF90CF90BF90AF90D7
S1130B6008952F923F924F925F926F927F928F924D
S1130B709F92AF92BF92CF92DF92EF92FF920F9328
S1130B801F93CF93DF93CDB7DEB76A970FB6F89470
S1130B90DEBF0FBECDBF9A8F898F1B01DC01559636
S1130BA01C928091CF0481FF04C088E191E00E94EF
S1130BB0DE2085E1F101A98DBA8D01900D928A950F
S1130BC0E1F7F101408051806280738020919002AE
S1130BD030919102409192025091930229833A8379
S1130BE04B835C8384819581A681B78189879A87A9
S1130BF0AB87BC8720919402309195024091960274
S1130C00509197022D833E834F8358878085918529
S1130C10A285B385898B9A8BAB8BBC8B2091980270
S1130C203091990240919A0250919B022D8B3E8BF8
S1130C304F8B588F10E4A12E12E4B12E1FE0C12E69
S1130C40D12C10E2E12E11EAF12E07E010E020E0B1
S1130C5030E0A901C301B2010E94DF0FC0907B0202
S1130C60D0907C02E0907D02F0907E029B01AC016A
S1130C702C193D094E095F0969017A0157FF08C023
S1130C80F094E094D094C094C11CD11CE11CF11CDC
S1130C90A98DBA8D5696CD92DD92ED92FC9259971C
S1130CA060937B0270937C0280937D0290937E021A
S1130CB0F1016481758186819781A0E4AA2EA2E462
S1130CC0BA2EAFE0CA2ED12C10E2E12E11EAF12E99
S1130CD007E010E020E030E0A9010E94DF0FC0909F
S1130CE07F02D0908002E0908102F09082029B010A
S1130CF0AC012C193D094E095F0969017A0157FFBE
S1130D0008C0F094E094D094C094C11CD11CE11CA0
S1130D10F11CA98DBA8D5A96CD92DD92ED92FC927A
S1130D205D9760937F027093800280938102909319
S1130D308202F1016085718582859385E0E4AE2E9F
S1130D40E2E4BE2EEFE0CE2ED12C18E1E12E17E125
S1130D50F12E05E010E023E030E040E050E00E9496
S1130D60DF0FC0908302D0908402E0908502F0905F
S1130D7086029B01AC012C193D094E095F096901EA
S1130D807A0157FF08C0F094E094D094C094C11C39
S1130D90D11CE11CF11CA98DBA8D5E96CD92DD9219
S1130DA0ED92FC92919760938302709384028093F6
S1130DB085029093860221E0F10140815181628194
S1130DC073818091900290919102A0919202B091CE
S1130DD09302481759076A077B070CF420E0A98D92
S1130DE0BA8D55968C91559720FB83F955968C9323
S1130DF021E0F101448155816681778180919402DB
S1130E0090919502A0919602B091970248175907C4
S1130E106A077B070CF420E0A98DBA8D55968C9156
S1130E20559720FB84F955968C9321E0F101408578
S1130E305185628573858091980290919902A09161
S1130E409A02B0919B02481759076A077B070CF472
S1130E5020E0A98DBA8D55968C91559720FB85F984
S1130E6055968C93F101848980FF55C0F485D10196
S1130E701D96EC911D971E968C911E971F969C9122
S1130E804F2F5E2FBC0177FF07C07095609550957A
S1130E9041955F4F6F4F7F4F4D875E876F87788B8C
S1130EA040E4A42E42E4B42E4FE0C42ED12C1CE125
S1130EB0E12E1BE2F12E00E010E020E030E0A90179
S1130EC06F2F7E2F0E94DF0FAB01BC0177FF07C09D
S1130ED070956095509541955F4F6F4F7F4FE98DA9
S1130EE0FA8D42A353A364A375A3F1018485958568
S1130EF0A685B78580959095A095B0958827B7FD70
S1130F0083959927AA27BB27E98DFA8D258980FB2C
S1130F1026F9258B7BC06485758586859785C09069
S1130F209C02D0909D02E0909E02F0909F029B0153
S1130F30AC012C193D094E095F0969017A0157FF7B
S1130F4008C0F094E094D094C094C11CD11CE11C5E
S1130F50F11CCD86DE86EF86F88A00E4A02E02E43A
S1130F60B02E0FE0C02ED12C1CE1E12E1BE2F12E9D
S1130F7000E010E020E030E0A9010E94DF0FC09003
S1130F808702D0908802E0908902F0908A029B0147
S1130F90AC012C193D094E095F0969017A0157FF1B
S1130FA008C0F094E094D094C094C11CD11CE11CFE
S1130FB0F11CA98DBA8D9296CD92DD92ED92FC92A0
S1130FC09597609387027093880280938902909327
S1130FD08A0221E0F10144855585668577858091F3
S1130FE09C0290919D02A0919E02B0919F0248178D
S1130FF059076A077B070CF420E0A98DBA8D559632
S11310008C91559720FB86F955968C938091CF044B
S113101081FF5CC0F10184859585A685B7854091E3
S11310209C0250919D0260919E0270919F02841BCC
S1131030950BA60BB70BBF93AF939F938F938085AC
S11310409185A285B385409198025091990260914F
S11310509A0270919B02841B950BA60BB70BBF934E
S1131060AF939F938F9384819581A681B78140919B
S11310709402509195026091960270919702841B9C
S1131080950BA60BB70BBF93AF939F938F93808160
S11310909181A281B381409190025091910260911B
S11310A0920270919302841B950BA60BB70BBF930E
S11310B0AF939F938F9388E291E09F938F930E94C5
S11310C0D1210FB6F894DEBF0FBECDBFA98DBA8D66
S11310D056964D915D916D917C915997FD0146A372
S11310E057A360A771A7828D938DA48DB58D4817E2
S11310F059076A077B0720F486A397A3A0A7B1A783
S1131100E98DFA8D868D978DA0A1B1A146A157A135
S113111060A571A5481759076A077B0720F486A3C1
S113112097A3A0A7B1A7E98DFA8D82A193A1A4A149
S1131130B5A146A157A160A571A5481759076A072B
S11311407B0720F486A397A3A0A7B1A78091CF041F
S113115081FF1DC0A98DBA8D99968C9199978F9313
S113116098968C9198978F9397968C9197978F9345
S113117096968C918F938BE391E09F938F930E942B
S1131180D1210F900F900F900F900F900F90E98D39
S1131190FA8D86A197A1A0A5B1A5892B8A2B8B2BAB
S11311A021F485898160858BD7C1A301920189814E
S11311B09A81AB81BC81281B390B4A0B5B0B2983B9
S11311C03A834B835C8357FF0BC050954095309511
S11311D021953F4F4F4F5F4F29833A834B835C8365
S11311E089849A84AB84BC842D813E814F81588547
S11311F0821A930AA40AB50AB7FE08C0B094A09450
S113120090948094811C911CA11CB11C49885A881B
S11312106B887C888D899E89AF89B88D481A590A54
S11312206A0A7B0A77FE08C07094609450944094D4
S1131230411C511C611C711C0E94F81F4114510473
S11312406104710441F4A501940169817A818B815F
S11312509C8164D716C029813A814B815C81232B00
S1131260242B252B29F481149104A104B10461F0E9
S113127083017201A501940169817A818B819C812A
S1131280ACD76B017C0102C07301620132E0C3166A
S1131290D104E104F10420F4CD84DE84EF84F888E1
S11312A08091CF0481FF10C0FF92EF92DF92CF9222
S11312B082E491E09F938F930E94D1210F900F902D
S11312C00F900F900F900F90A98DBA8D96968D91D7
S11312D09D910D90BC91A02D89879A87AB87BC877F
S11312E0A0E6B9E0A50194010E949B2529853A85D1
S11312F04B855C850E945225A0E9B1E00E949B25A4
S113130028EC30E040E050E00E9452252D833E83DB
S11313104F835887A0E6B9E029813A814B815C81EB
S11313200E949B2529853A854B855C850E94522520
S1131330A0E9B1E00E949B2528EC30E040E050E0B9
S11313400E945225B42FA32F922F88272D813E81EE
S11313504F815885542F432F322F22272D833E83CC
S11313604F835887281739074A075B0720F48D8372
S11313709E83AF83B887A0E6B9E0A30192010E94DF
S11313809B2529853A854B855C850E945225A0E9D9
S1131390B1E00E949B2524E630E040E050E00E944A
S11313A05225B42FA32F922F88274D805E806F8003
S11313B07884481659066A067B0610F42C013D0110
S11313C0A0E6B9E02D853E854F8558890E949B256E
S11313D029853A854B855C850E945225A0E9B1E0B8
S11313E00E949B2528E532E040E050E00E9452250F
S11313F0B42FA32F922F8827481659066A067B0616
S113140010F42C013D01D10150968D919D910D90C8
S1131410BC91A02D8D839E83AF83B887A0E6B9E0ED
S1131420A70196010E949B2529853A854B855C85F9
S11314300E945225A0E9B1E00E949B252D813E81A6
S11314404F8158850E945225B42FA32F922F8827AD
S113145084159505A605B70538F0E98DFA8D86AB98
S113146097ABA0AFB1AF08C0A98DBA8DD6964D92F7
S11314705D926D927C92D9972D813E814F815885E2
S11314802F3F3F4F4105510548F08EEF9FEFA0E0FD
S1131490B0E0F101808B918BA28BB38BD10150967C
S11314A06D917D918D919C9153979B01AC010E940C
S11314B02F2520E438E340E050E00E945225898142
S11314C09A81AB81BC81892B8A2B8B2B71F0A98DDE
S11314D0BA8D9E962C939E979F963C939F97D096F9
S11314E04C93D097D1965C930EC089288A288B2878
S11314F071F780EA96E8A1E0B0E0E98DFA8D86A75D
S113150097A7A0ABB1AB89859A85AB85BC85B69509
S1131510A79597958795E98DFA8D46A557A560A956
S113152071A984179507A607B70720F486A797A77C
S1131530A0ABB1ABE98DFA8D86A597A5A0A9B1A9F9
S113154089849A84AB84BC84881A990AAA0ABB0A3F
S113155082AA93AAA4AAB5AA8091CF0481FF04C049
S11315608AE491E00E94DE2085E1F101A0E9B2E085
S113157001900D928A95E1F76A960FB6F894DEBF52
S11315800FBECDBFDF91CF911F910F91FF90EF90D0
S1131590DF90CF90BF90AF909F908F907F906F908F
S11315A05F904F903F902F900895CF93DF93EC017D
S11315B08D8980FD7EC01092BF0483FF02C02E9AE5
S11315C001C02E988D8984FD02C02F9A01C02F98E6
S11315D08D8985FD04C080910B01826003C08091D8
S11315E00B018D7F80930B018D8986FF02C0169AB3
S11315F001C016984EA15FA168A579A57695679557
S11316005795479570956095509541955F4F6F4FED
S11316107F4F409340025093410260934202709383
S1131620430240933C0250933D0260933E02709308
S11316303F02409338025093390260933A02709308
S11316403B02409334025093350260933602709308
S11316503702FE01769680E1A4E4B2E001900D9297
S11316608A95E1F710925402109255021092560294
S1131670109257028D8982608D8B4EA95FA968AD47
S113168079AD8091580290915902A0915A02B0917B
S11316905B0284179507A607B70728F49927872FB5
S11316A0762F652F04C0692F7A2F8B2F99270E94DC
S11316B06A2488899989AA89BB8980937602909340
S11316C07702A0937802B0937902DF91CF910895C5
S11316D08F929F92AF92BF92CF92DF92EF92FF923E
S11316E01F93CF93DF93EC018AAD80FF36C0109136
S11316F000018BAD90E011FBAA27A0F9B0E0A81778
S1131700B90731F4A0916002AF5FA093600202C0F8
S113171010926002A0910001EA2FE170F0E0E81756
S1131720F90731F4809163028F5F8093630202C0F2
S11317301092630280916002843048F481E090E06A
S1131740E0916302E43028F480E090E002C081E09C
S113175090E0811105C011E005C010E080E002C0F6
S113176010E081E0C0904402D0904502E09046022F
S1131770F0904702C114D104E104F10409F457C004
S1131780811155C08091340290913502A0913602A6
S1131790B09137028E889F88A88CB98C88199909D2
S11317A0AA09BB098093340290933502A0933602B0
S11317B0B0933702B7FF3BC08D8983FF02C02E9AD6
S11317C001C02E988D8984FD02C02F9A01C02F98E4
S11317D08FEF90E0909389008093880090939D0010
S11317E080939C0081E0C81AD108E108F108C092F6
S11317F04402D0924502E0924602F0924702809160
S1131800340290913502A0913602B0913702CEA0F5
S1131810DFA0E8A4F9A48C0D9D1DAE1DBF1D80930F
S1131820340290933502A0933602B0933702EAADA6
S1131830E1FF36C0F09103018BAD90E0F1FB662728
S113184060F970E06817790731F4609161026F5FA5
S11318506093610202C01092610260910301462FFD
S1131860417050E04817590731F4809164028F5F4A
S11318708093640202C010926402809161028430F9
S113188048F481E090E040916402443028F480E020
S113189090E002C081E090E0811104C0126003C0B6
S11318A080E001C081E0409148025091490260917A
S11318B04A0270914B024115510561057105C1F150
S11318C0811136C08091380290913902A0913A0278
S11318D0B0913B02CA8CDB8CEC8CFD8C8C199D097D
S11318E0AE09BF098093380290933902A0933A025B
S11318F0B0933B02B7FF1CC0415051096109710903
S1131900409348025093490260934A0270934B02F9
S11319104EA15FA168A579A5480F591F6A1F7B1FB7
S1131920409338025093390260933A0270933B0219
S1131930E2FF26C089B183FB222720F930E08BAD7A
S113194090E02817390731F4809162028F5F809309
S1131950620202C01092620280916202843048F4F2
S113196081E090E020916502243028F480E090E04A
S113197002C081E090E0282F811104C0146003C0EC
S113198020E001C021E080914C0290914D02A09191
S11319904E02B0914F020097A105B105E1F121116A
S11319A03AC040913C0250913D0260913E027091D8
S11319B03F02CE8CDF8CE8A0F9A04C195D096E09BA
S11319C07F0940933C0250933D0260933E02709322
S11319D03F0277FF20C020910B01286020930B0168
S11319E00197A109B10980934C0290934D02A093F1
S11319F04E02B0934F028EA19FA1A8A5B9A5840F52
S1131A00951FA61FB71F80933C0290933D02A0939D
S1131A103E02B0933F028091500290915102A091F6
S1131A205202B09153020097A105B105B1F1409162
S1131A304002509141026091420270914302CAA057
S1131A40DBA0ECA0FDA04C195D096E097F09409351
S1131A50400250934102609342027093430277FF25
S1131A601CC0149A0197A109B10980935002909364
S1131A705102A0935202B09353028EA19FA1A8A534
S1131A80B9A5840F951FA61FB71F8093400290939A
S1131A904102A0934202B09343027894C09054024E
S1131AA0D0905502E0905602F09057028EA59FA563
S1131AB0A8A9B9A9C816D906EA06FB0658F44091A4
S1131AC05C0250915D0260915E0270915F0277FF4B
S1131AD0BEC017C08AA99BA9ACA9BDA9C816D906BE
S1131AE0EA06FB06F8F040915C0250915D026091B9
S1131AF05E0270915F0214161506160617060CF0A6
S1131B00A6C08EEF9FEFAFEFBFEF841B950BA60B24
S1131B10B70B80935C0290935D02A0935E02B09336
S1131B205F0295C08FEFC81AD80AE80AF80AC09273
S1131B305402D0925502E0925602F09257028AADB6
S1131B40882321F1111122C01092500210925102E7
S1131B50109252021092530210924C0210924D02B3
S1131B6010924E0210924F021092480210924902B3
S1131B7010924A0210924B021092440210924502B3
S1131B8010924602109247020E94920480914402ED
S1131B9090914502A0914602B0914702892B8A2B6D
S1131BA08B2B41F58091480290914902A0914A0201
S1131BB0B0914B02892B8A2B8B2BE1F480914C0240
S1131BC090914D02A0914E02B0914F02892B8A2B25
S1131BD08B2B81F48091500290915102A09152027A
S1131BE0B0915302892B8A2B8B2B21F48D898D7F05
S1131BF08D8B02C01092BF044EA95FA968AD79AD68
S1131C008091580290915902A0915A02B0915B02BE
S1131C1084179507A607B70728F49927872F762FE7
S1131C20652F04C0692F7A2F8B2F99270E946A246D
S1131C3080910B01877F80930B0114981092890087
S1131C401092880010929D0010929C0031C0209147
S1131C505C0230915D0240915E0250915F022C5F04
S1131C603F4F4F4F5F4F20935C0230935D02409390
S1131C705E0250935F028090580290905902A090A7
S1131C805A02B0905B02C501B401660F771F881F2A
S1131C90991F0E947425821A930AA40AB50A809295
S1131CA0580290925902A0925A02B0925B023ACF23
S1131CB0DF91CF911F91FF90EF90DF90CF90BF9075
S1131CC0AF909F908F900895CF92DF92EF92FF9202
S1131CD01F93CF93DF93C091BC0463D3882309F48B
S1131CE041C08091B8049091B904A091BA04B09114
S1131CF0BB048093660290936702A0936802B0933A
S1131D0069028091B4049091B504A091B604B09195
S1131D10B70480936A0290936B02A0936C02B09311
S1131D206D028091980290919902A0919A02B091CB
S1131D309B0280936E0290936F02A0937002B09303
S1131D40710280919C0290919D02A0919E02B0919B
S1131D509F028093720290937302A0937402B093D3
S1131D60750299C08CE3C89FE0011124CB55DD4F67
S1131D701D8911FF90C08091B8049091B904A0917D
S1131D80BA04B091BB048093660290936702A09357
S1131D906802B09369028091B4049091B504A09153
S1131DA0B604B091B70480936A0290936B02A09337
S1131DB06C02B0936D0220914C0230914D0240911F
S1131DC04E0250914F02C884D984EA84FB84A8EE61
S1131DD0B3E00E949B2526E03DE040E050E00E94F5
S1131DE0522515FF0DC0C21AD30AE40AF50AC0929F
S1131DF06E02D0926F02E0927002F09271020CC0F7
S1131E002C0D3D1D4E1D5F1D20936E0230936F02FD
S1131E1040937002509371028C892091500230914A
S1131E205102409152025091530280FF0BC0A8EE20
S1131E30B3E00E949B252BE030E040E050E00E949C
S1131E40522521C0CC84DD84EE84FF84A8EEB3E067
S1131E500E949B252BE030E040E050E00E94522598
S1131E6016FF0DC0C21AD30AE40AF50AC092720220
S1131E70D0927302E0927402F09275020CC02C0DA1
S1131E803D1D4E1D5F1D20937202309373024093DB
S1131E90740250937502DF91CF911F91FF90EF90E0
S1131EA0DF90CF9008951F920F920FB60F921124D6
S1131EB04F935F936F937F938F939F93AF93BF934E
S1131EC080910901829581708093CB0480910901EE
S1131ED082FB882780F98093CE044091B804509106
S1131EE0B9046091BA047091BB048091CB04882337
S1131EF021F08FEF9FEFDC0104C081E090E0A0E0CF
S1131F00B0E0840F951FA61FB71F8093B804909369
S1131F10B904A093BA04B093BB04BF91AF919F914D
S1131F208F917F916F915F914F910F900FBE0F90A2
S1131F301F9018951F920F920FB60F9211244F9372
S1131F405F936F937F938F939F93AF93BF9382B36A
S1131F5081708093CC048091090186FB882780F9E5
S1131F608093CD044091B4045091B5046091B604BB
S1131F707091B7048091CC04882321F08FEF9FEFF8
S1131F80DC0104C081E090E0A0E0B0E0840F951F84
S1131F90A61FB71F8093B4049093B504A093B6040E
S1131FA0B093B704BF91AF919F918F917F916F913F
S1131FB05F914F910F900FBE0F901F9018952F9225
S1131FC03F924F925F926F927F928F929F92AF92C5
S1131FD0BF92CF92DF92EF92FF920F931F93CF9312
S1131FE0DF93CDB7DEB72C970FB6F894DEBF0FBEE4
S1131FF0CDBF29873A874B875C8797FF09C09095A7
S11320008095709561957F4F8F4F9F4FF1E001C090
S1132010F0E0612C712C4301212C312C210141C0B1
S113202060FF1AC029853A854B855C85220E331ED4
S1132030441E551E6E0C7F1C801E911E6A147B0468
S11320408C049D0448F03FEF231A330A430A530AD1
S11320506A187B088C089D089595879577956795F0
S113206029853A854B855C85220F331F441F551FF4
S113207029873A874B875C87EE0CFF1C001F111FD2
S1132080EA14FB040C051D0560F02F5F3F4F4F4F12
S11320905F4F29873A874B875C87EA18FB080C094E
S11320A01D09611571058105910509F0B9CF760106
S11320B06501F694E794D794C794C614D704E8044A
S11320C0F90428F43FEF231A330A430A530AFF237F
S11320D041F0002711279801021913092409350931
S11320E002C092018101B801C9012C960FB6F8947F
S11320F0DEBF0FBECDBFDF91CF911F910F91FF9037
S1132100EF90DF90CF90BF90AF909F908F907F9093
S11321106F905F904F903F902F9008954F925F92F1
S11321206F927F928F929F92AF92BF92CF92DF92E3
S1132130EF92FF920F931F9362177307840795071B
S113214028F449015A012B013C0104C04B015C01F4
S113215029013A01A9EBB1E0A30192010E949B2558
S11321606B017C01AFEEB3E0A50194010E949B25B5
S1132170C60ED71EE81EF91E14E0440C551C661C3E
S1132180771C1A95D1F784149504A604B70440F477
S1132190A8E2B0E00E949B25C61AD70AE80AF90A09
S11321A0970186011E5F2F4F3F4FBAE03695279562
S11321B017950795BA95D1F7B801C9011F910F91E9
S11321C0FF90EF90DF90CF90BF90AF909F908F9053
S11321D07F906F905F904F9008954F925F926F92AF
S11321E07F928F929F92AF92BF92CF92DF92EF92A3
S11321F0FF920F931F93CF93DF9300D01F92CDB71D
S1132200DEB7621773078407950738F44B015C0146
S113221029833A834B835C8306C049015A0169834D
S11322207A838B839C8389819A81AB81BC81E816F4
S1132230F9060A071B0750F0E814F9040A051B0500
S113224080F424013501470158010DC024013501F2
S113225089809A80AB80BC80E982FA820B831C83DC
S113226002C027013801A3E5B3E0A50194010E944F
S11322709B256B017C01ACE5B3E0A30192010E94B4
S11322809B25C60ED71EE81EF91EA8E0B2E02981E0
S11322903A814B815C810E949B25C60ED71EE81EA5
S11322A0F91ED501C401880F991FAA1FBB1F481628
S11322B059066A067B0650F4A6E2B1E0A301920136
S11322C00E949B25C61AD70AE80AF90A89819A81CD
S11322D0AB81BC8122E0880F991FAA1FBB1F2A95DE
S11322E0D1F789839A83AB83BC83481659066A065F
S11322F07B0650F4A1E7B0E0A30192010E949B2564
S1132300C61AD70AE80AF90A89819A81AB81BC8185
S113231088169906AA06BB0650F4A8E2B0E0A50107
S113232094010E949B25C61AD70AE80AF90A92E08A
S1132330D90EE11CF11C0AE0F694E794D794C794F3
S11323400A95D1F7B601C7010F900F900F900F9027
S1132350DF91CF911F910F91FF90EF90DF90CF907D
S1132360BF90AF909F908F907F906F905F904F90B1
S113237008955091BC044091BD04252F30E0842F72
S113238090E0451738F4281B390B2130310539F416
S11323908FEF0895295F3F4F28173907C9F380E06D
S11323A008959FB7F894E091BC048091BD04E813AC
S11323B00BC08CE3E89FF0011124E654FD4F8081AB
S11323C081FD02C08FEF01C080E09FBF08951F937D
S11323D0CF93DF931CE3E5DF8823F1F027C08F5F01
S11323E08770189FE0011124CB55DD4F8093BC0406
S11323F08D8982FF0EC08EE591E00E94DE208D89DA
S113240082608D8B60E074E284EF90E00E946A2425
S1132410E2CFCE01CAD8DFCF8091BC04189FF0016F
S11324201124E654FD4F908191FFD9CFDF91CF91D4
S11324301F910895CF92DF92EF92FF920F931F9313
S1132440CF93DF938C01C62ED42E03C084E690E094
S1132450B0D08FDF8111FACFF090BD04F39487E000
S1132460F8228CE3E82EEF9CE0011124CB55DD4FDC
S113247098DF811108C04091BD04E49EA00111249D
S11324804B555D4F02C040E050E00115110539F095
S1132490B801CE010E94B105CAAEDBAE04C08D897D
S11324A084608E7F8D8BF092BD049FB7F894E09189
S11324B0BC048CE3E89FF0011124E654FD4F8081B5
S11324C0869581709FBF811102C081DF7894DF916E
S11324D0CF911F910F91FF90EF90DF90CF900895CF
S11324E0CF93DF93C091BC048CE3C89FE001112417
S11324F0CB55DD4F8D8981FF17C082FF13C060E08B
S113250074E284EF90E00E946A240E946723882387
S113251059F08D898B7F8D7F8D8B8FE491E00E94A4
S1132520DE2002C0CE01D4D88D8981FD03C0DF91A5
S1132530CF914DCFDF91CF9108951BDF811106C05C
S113254030DF882331F085E490E005C086E490E034
S113255002C080E290E09F938F938091BD041F920C
S11325608F938091BC041F928F9387E791E09F9390
S11325708F930E94D1218DB79EB708960FB6F89419
S11325809EBF0FBE8DBF0895E091BD04E093BC04CF
S11325908CE3E89FF0011124E654FD4F80818D7F88
S11325A08083089502C00E949003FBDE8823D9F340
S11325B008952EEF3FEF04C0F9013197F1F79054DD
S11325C0813040E49407C0F7880F991F880F991F42
S11325D00197F1F70895CF92DF92EF92FF926B018A
S11325E07C0108C087EE9DEFE4DF81E4C81AD108BE
S11325F0E108F10882E4C816D104E104F10490F77B
S113260028EE33E0C29EC001C39E900DD29E900D71
S11326101124FF90EF90DF90CF90CBCFCF92DF9239
S1132620EF92FF920F931F93CF93DF93F82EF92F1E
S11326300091AE041091AF042091B0043091B10424
S1132640E091B204EF7731F0E15004C0F62EF72F99
S1132650E15002C0CAE0D0E0EE2339F08F2D9F2F65
S1132660BE010E943E25892B89F3AF2DBF2FA901FE
S113267098010E949B259B01AC01EE23C1F084E0EC
S1132680E89FF0011124E65FFD4FC080D180E28015
S1132690F380C701B6019695879577956795620F84
S11326A0731F841F951FA70196010E9452258091D4
S11326B0B20487FF0AC0DA01C90100271127980173
S11326C0081B190B2A0B3B0B02C089019A01B801A4
S11326D0C901DF91CF911F910F91FF90EF90DF908F
S11326E0CF900895E5E8F4E080818160808381E003
S11326F080938804E6E8F4E080818068808308950C
S11327000F931F93CF93DF93D82F8156CD2F8A3108
S113271008F4CF7D8091BE04882309F459C19C2F0D
S113272091549A3138F0CA3229F0CA3019F0CD30B8
S113273009F04EC1803509F402C190F4873409F1DF
S113274048F4853409F498C008F0B5C08A3209F019
S113275033C124C18D3401F18E3409F02DC10EC171
S1132760883559F138F4833509F4C4C0843509F047
S113277023C1F3C0893509F43FC08A3509F01CC16F
S11327805CC08091AE049091AF04A091B004B0916C
S1132790B104809388040AC08091AE049091AF0480
S11327A0A091B004B091B104809389042091CF0426
S11327B027FF02C1BC01CD01FAC08091870480FFCC
S11327C003C088E393E602C088EE93E027DF6093BA
S11327D08A0470938B0480938C0490938D0480916D
S11327E0CF0487FFE9C060918A0470918B048091C3
S11327F08C0490918D041EC08091870480FF03C0D7
S113280088E393E602C088EE93E008DF60938E04C9
S113281070938F0480939004909391048091CF04DB
S113282087FFCAC060918E0470918F0480919004D8
S1132830909191040E944E21BFC08091870480FF33
S113284003C088E393E602C088EE93E0E7DE60937A
S113285092047093930480939404909395048091CC
S1132860CF0487FFA9C06091920470919304809172
S1132870940490919504DECF8091870480FF03C077
S113288088E393E602C088EE93E0C8DE6093960482
S11328907093970480939804909399048091CF0443
S11328A087FF8AC060919604709197048091980480
S11328B0909199047FC08091870480FF03C088E3CE
S11328C093E602C081E090E0A9DE60939A047093DD
S11328D09B0480939C0490939D048091CF0487FF74
S11328E06BC060919A0470919B0480919C049091B8
S11328F09D0460C080918904883621F08D3611F0E2
S11329008C3819F484E090E008C08258833018F4BD
S113291080E094E002C081E090E080DE7093A00447
S113292060939F048091CF0487FF46C060919F0409
S11329307091A004882777FD8095982F3BC081E093
S113294090E06CDE7093A2046093A1042091CF0404
S113295027FF32C0882799272DC04091AE0450919B
S1132960AF046091B0047091B1044093A3048091CA
S1132970CF0487FF21C0CB01BA0119C081E090E0E8
S11329804DDE6093A4047093A5048093A6049093F1
S1132990A7042091CF0427FF0FC00CC081E090E072
S11329A03DDE6093AC042091CF0427FF05C0772758
S11329B0882799270E9415211092BE041092AE0414
S11329C01092AF041092B0041092B1041092B204A9
S11329D080918604982F907309F0E6C08C2F81545F
S11329E08A3110F0CA3249F4C093BE048091CF04F6
S11329F087FF03C08C2F0E94AE208C2F80538A3017
S1132A0008F047C0E091B204EF778E2F90E004976E
S1132A100CF0D1C0809187042091AE043091AF04B2
S1132A204091B0045091B10480FD08C02F3A85E76D
S1132A30380781E44807510548F0BDC02D3F90E8B0
S1132A40390792E04907510508F0B5C0AAE0B0E0A3
S1132A500E949B250C2F10E000531109222717FD1B
S1132A602095322F600F711F821F931F6093AE0455
S1132A707093AF048093B0049093B1048091B20436
S1132A80982F9F7709F497C0EF5FEF7780788E2BAC
S1132A9088C0CE3409F466C0F8F4C53409F44CC0D7
S1132AA0A0F4CD3209F46AC048F480918604C83297
S1132AB009F462C0CA3209F07EC058C0CE3209F4AB
S1132AC069C0CB3309F077C053C0C734B9F0D0F133
S1132AD0CD3409F070C01BC0C43509F43FC030F4D4
S1132AE0C035C1F1C33509F066C030C0C935E1F065
S1132AF0CA35F1F0C83509F05EC012C08091850472
S1132B0081608D7F809385041092890454C08091E4
S1132B10850482608E7F80938504109288044BC064
S1132B208091850484600BC080918504886007C00F
S1132B3080918504806103C08091850480628093C4
S1132B40850439C0809185048064F9CF809185041F
S1132B508068F5CF8091860481602BC080918604C3
S1132B60826027C080918604846023C0886021C06D
S1132B708091860480611DC080621BC080E88093C0
S1132B80B2041092AE041092AF041092B0041092EA
S1132B90B10411C08091B204982F9F7761F48078BA
S1132BA081608093B20407C085FF05C0C93219F45F
S1132BB08F7D809386048091860483FD05C0809177
S1132BC0AD048D278093AD04CA3019F0CD3009F0DF
S1132BD084C08091CF0487FF03C08C2F0E94AE2055
S1132BE08091AD049091AC04891721F090918604F2
S1132BF093FD20C080E891E00E94DE2073D08AE03B
S1132C000E94AE208091860482FF30C08091A4048B
S1132C109091A504A091A604B091A7040196A11DCA
S1132C20B11D8093A8049093A904A093AA04B0931F
S1132C30AB041CC01F928F938091AB048F9380913F
S1132C40AA048F938091A9048F938091A8048F93F1
S1132C5084E891E09F938F930E94D1218DB79EB712
S1132C6008960FB6F8949EBF0FBE8DBF1092AD04A8
S1132C701092AC048091860490918504817C8E7FAF
S1132C8080938604917091609093850491E0909371
S1132C90880486FF18C01092920410929304109234
S1132CA094041092950410928E0410928F04109242
S1132CB090041092910410928A0410928B04109242
S1132CC08C0410928D04807C41F010929604109232
S1132CD097041092980410929904DF91CF911F9158
S1132CE00F910895CF92DF92EF92FF92CF93C0910C
S1132CF08604C6FF54C080918A0490918B04A091ED
S1132D008C04B0918D044091900250919102609195
S1132D10920270919302840F951FA61FB71F809390
S1132D208A0490938B04A0938C04B0938D048091B7
S1132D308E0490918F04A0919004B09191044091DD
S1132D409402509195026091960270919702840FBB
S1132D50951FA61FB71F80938E0490938F04A09392
S1132D609004B09391048091920490919304A09163
S1132D709404B09195044091980250919902609105
S1132D809A0270919B02840F951FA61FB71F809310
S1132D90920490939304A0939404B09395049C2F6D
S1132DA0907C80919E04992311F0816001C08E7FF4
S1132DB080939E0460918A0470918B0480918C04AA
S1132DC090918D040E94CC2420E030E0A9010E945F
S1132DD0C62487FF08C010928A0410928B041092B4
S1132DE08C0410928D0460918A0470918B048091FC
S1132DF08C0490918D040E94CC2420E030E543E4BF
S1132E0058E40E942B25181664F480E49DE0A3E0A6
S1132E10B0E080938A0490938B04A0938C04B093C5
S1132E208D0460918E0470918F0480919004909130
S1132E3091040E94CC2420E030E0A9010E94C62421
S1132E4087FF08C010928E0410928F041092900491
S1132E501092910460918E0470918F04809190047B
S1132E60909191040E94CC2420E030E543E458E49E
S1132E700E942B25181664F480E49DE0A3E0B0E0E2
S1132E8080938E0490938F04A0939004B093910444
S1132E9060919204709193048091940490919504AC
S1132EA00E94CC2420E030E0A9010E94C62487FFC0
S1132EB008C01092920410929304109294041092F9
S1132EC0950460919204709193048091940490917C
S1132ED095040E94CC2420E038EB48E058E40E949A
S1132EE02B25181664F480EE92E2A2E0B0E0809301
S1132EF0920490939304A0939404B0939504C1FF17
S1132F0004C08091A3048093D0049091850490FF21
S1132F1064C1809188048C3109F47AC088F48430C7
S1132F2009F44AC030F4882301F1813009F050C11A
S1132F303EC0843109F45DC0853109F049C15DC0EA
S1132F408B3509F48AC038F48E3109F45CC08A35B3
S1132F5009F03EC17EC0813A09F41FC1823A09F4E6
S1132F6027C18C3509F034C17EC0C0909A04D0903A
S1132F709B04E0909C04F0909D0480E991E0A0E023
S1132F80B0E080939A0490939B04A0939C04B09324
S1132F909D0440E060E08AE894E04CDAC0929A0430
S1132FA0D0929B04E0929C04F0929D04F6C240E00F
S1132FB060E08AE894E09AC1F5DA8091860480FDA5
S1132FC011C0EBC20E94900361E070E080E090E0E9
S1132FD002DB8091A1049091A20401979093A20432
S1132FE08093A1048091A1049091A204892B51F7AC
S1132FF0D4C280918704816003C0809187048E7F4E
S113300080938704CAC240E060E08AE894E012DA60
S1133010C9DA8091850482FF03C083D581E001C0B1
S113302080E09091850493FF02C04ED681E0909198
S1133030850494FF06C0CF91FF90EF90DF90CF906E
S113304016C78111AAC2CF91FF90EF90DF90CF9065
S11330506AC7809186048F7B03C080918604806454
S1133060809386049AC29EDA2091850422FF12C0BE
S113307080918A0490918B04A0918C04B0918D046A
S11330808093900290939102A0939202B093930242
S113309081E001C080E023FF11C080918E049091F3
S11330A08F04A0919004B091910480939402909322
S11330B09502A0939602B093970281E024FF11C079
S11330C08091920490919304A0919404B0919504FA
S11330D08093980290939902A0939A02B0939B02D2
S11330E081E025FF11C08091960490919704A091EE
S11330F09804B091990480939C0290939D02A093AC
S11331009E02B0939F0242C0811140C01092960467
S113311010929704109298041092990410929C02B1
S113312010929D0210929E0210929F02109292049D
S113313010929304109294041092950410929802A1
S11331401092990210929A0210929B0210928E048D
S113315010928F0410929004109291041092940291
S113316010929502109296021092970210928A047D
S113317010928B0410928C0410928D041092900281
S1133180109291021092920210929302CF91FF90AA
S1133190EF90DF90CF900C94320592FDC2D48091D1
S11331A0850483FD91D58091850484FFF6C143CFC6
S11331B092FD13D58091850483FDE2D58091850429
S11331C084FFEBC1CF91FF90EF90DF90CF90AEC61C
S11331D01F928F9382EA91E0D9C191FFDEC1809161
S11331E08904893609F497C048F5873009F4A4C0E6
S11331F090F4833009F472C038F4882309F44AC087
S1133200823009F0BFC146C0853009F4C6C186309A
S113321009F0B8C156C08435E9F138F4823509F4AF
S113322055C0833509F0AEC155C0873609F4B5C120
S113323008F062C0853609F0A5C150C0873709F48B
S1133240E9C0A0F48037B9F138F48A3609F474C0BF
S11332508E3609F097C1A1C1833709F4C5C08437FC
S113326009F440C0823709F08DC172C0843809F472
S113327045C138F4823809F411C1833809F082C198
S113328025C1863809F46AC108F450C18C3809F0A4
S113329079C16AC187D960E070E080E00E9472233E
S11332A060E070E081E00E947223CF91FF90EF9084
S11332B0DF90CF90A7C60E94C32466D9A3D6F89402
S11332C0FFCF8091D0048093D10467C1809186049C
S11332D08F77C6CE809186048068C2CE0E94672311
S11332E081115BC140E060E080E090E0CF91FF900D
S11332F0EF90DF90CF909EC897FF4FC1C0FD04C0F0
S11333001092A2041092A10460919F047091A004F1
S11333108091A10430C1C0FD06C082E090E090938A
S1133320A2048093A1048091A104CF91FF90EF9017
S1133330DF90CF900C94842397FF2FC160919F045A
S11333408091A104CF91FF90EF90DF90CF9078C24D
S11333500E94640E809179028F93809178028F93FA
S1133360809177028F93809176028F93809175027A
S11333708F93809174028F93809173028F938091C5
S113338072028F93809171028F93809170028F9358
S113339080916F028F9380916E028F9380916D0262
S11333A08F9380916C028F9380916B028F938091A5
S11333B06A028F93809169028F93809168028F9340
S11333C0809167028F93809166028F9383EB91E0E3
S11333D09F938F93E6D78DB79EB746960FB6F89412
S11333E09EBF0FBE8DBFD9C01F9282E08F931F92E4
S11333F081E08F931F928F9381ED91E09F938F9340
S1133400D0D78DB79EB708960FB6F8949EBF0FBE5F
S11334108DBFC3C0EDD56AE070E080E090E0DBD8FA
S113342080910001869581701F928F938EE792E0C0
S11334309F938F93B6D78091000181701F928F93D1
S113344088E892E09F938F93ACD78091030186958F
S113345081701F928F9382E992E09F938F93A1D7FB
S11334608091030181701F928F938CE992E09F9366
S11334708F9397D789B183FB882780F91F928F9305
S113348086EA92E09F938F938CD78DB79EB744962C
S11334900FB6F8949EBF0FBE8DBF7FC0C0FD04C0A1
S11334A01092A2041092A10497FF77C040919F0448
S11334B05091A004662757FD6095762F8091A10452
S11334C0CF91FF90EF90DF90CF90AAC2C0FD04C0CF
S11334D01092A2041092A10497FF5FC040919F0430
S11334E05091A004662757FD6095762F8091A10422
S11334F0CF91FF90EF90DF90CF909FC2C0FD04C0AA
S11335001092A2041092A10497FF47C040919F0417
S11335105091A004662757FD6095762F8091A104F1
S1133520CF91FF90EF90DF90CF9094C2C0FD04C084
S11335301092A2041092A10497FF2FC040919F04FF
S11335405091A004662757FD6095762F8091A104C1
S1133550CF91FF90EF90DF90CF9089C2CF91FF90F1
S1133560EF90DF90CF908EC297FF17C060919F04B9
S11335707091A00481E0CF91FF90EF90DF90CF9005
S11335800C9472231F928F9380EB92E09F938F93FE
S113359008D70F900F900F900F90CF91FF90EF905E
S11335A0DF90CF9008952F923F924F925F926F9247
S11335B07F928F929F92AF92BF92CF92DF92EF92BF
S11335C0FF920F931F93CF93DF9300D0CDB7DEB755
S11335D093E094BD81E085BD25E025BD10926E0089
S11335E017BC18BC9093B0008093B10097E09093FF
S11335F0B100109270001092B3001092B400809346
S1133600A00099E09093A100109272001092A9007A
S11336101092A8001092AB001092AA00809320018F
S113362090932101109273001092290110922801A5
S113363010922B0110922A01212C9EE0392EC12CCC
S113364030E2D32EE12CF12C412C42E0542E612C9B
S1133650712C50E8852E99249394A22CB12C2A9D88
S1133660F0012B9DF00D1124E050FE4F0380F481F6
S1133670E02D309709F457C01082EC3AF10509F4B3
S113368041C088F4E834F10529F128F4E734F10560
S113369009F049C01CC0E83AF10551F1EA3AF105D4
S11336A009F041C029C0E83281E0F80779F138F423
S11336B0E33BF10599F0E43BF105A9F513C0EA32C7
S11336C0A1E0FA0739F1EC32F14069F527C084B57D
S11336D0806802C084B5806284BD25C08091B0003A
S11336E0806803C08091B00080628093B0001BC0EA
S11336F08091A000806803C08091A00080628093C4
S1133700A00011C08091A0008860F9CF80912001B1
S1133710806807C080912001806203C080912001ED
S1133720886080932001850184E0000F111F8A9531
S1133730E1F7C801805090402B830E94AB253A9C4E
S1133740A0013B9C500D112446505B4FFA0160834D
S1133750718382839383C8018C5F9F4F49835A830B
S11337600E94AB2549815A81DA0114966D937D93A9
S11337708D939C931797C801885F9F4F0E94AB2538
S113378049815A81FA016087718782879387C801CA
S1133790845F9F4F0E94B02549815A81DA011D96AA
S11337A09C938E931C976EE070E0CA010E946E0495
S11337B05C01C801825F9F4F0E94B0252B81498123
S11337C05A81A816B906B1F0FA01C082D182E28208
S11337D0F382DA0114964D925D926D927C92179762
S11337E080E090E6A0E0B0E080879187A287B3876D
S11337F0958684862394F2E02F122FCF2C98249A56
S1133800809102018F7D8093020180910101806289
S1133810809301010F900F900F90DF91CF911F9132
S11338200F91FF90EF90DF90CF90BF90AF909F905B
S11338308F907F906F905F904F903F902F9008955E
S1133840823048F594E1899FD0011124AE52BB4FD8
S113385053966C9395E0899FF0011124E050FE4F3C
S1133860A381B481109711F06C9313C0A081B1812E
S113387032812C9181E090E0032E01C0880F0A94DC
S1133880EAF7683018F0282B2C9304C08095822323
S11338908C936111ADC308959F92AF92BF92CF9262
S11338A0DF92EF92FF920F931F93CF93DF93982EA3
S11338B08A0181E0891508F49BC02115310509F4BA
S11338C089C0D901A41BB50B94E1999EF001112480
S11338D0EE52FB4F82892AE0929EE0011124C80F28
S11338E0D11DCC0FDD1FCC52DB4F598348838F5F32
S11338F08770828B808191818A0F9B1F9183808343
S1133900A92CB12C2EE0929EE0011124C650DB4F6D
S11339102C853D85281739070CF406C0319521956F
S113392031098217930714F4318320838EE08A9D32
S1133930F0018B9DF00D1124E650FB4F2081318165
S1133940428153810E94A5256B017C0184E18A9DFB
S1133950E0018B9DD00D1124CE52DB4FA881B9819B
S113396024813581468157810E94A525C60ED71E24
S1133970E81EF91E8A899AE09A9DD0019B9DB00D9C
S11339801124A80FB11DAA0FBB1FAC52BB4F0D9041
S1133990BC91A02DA01BB10B208531854285538598
S11339A00E94A525C60ED71EE81EF91EC701B60142
S11339B020E034E040E050E00E9474252F3F3105C0
S11339C04105510509F024F457FD04C0622F03C0DA
S11339D06FEF01C060E0892DDF91CF911F910F91AE
S11339E0FF90EF90DF90CF90BF90AF909F9028CF43
S11339F0DF91CF911F910F91FF90EF90DF90CF90C7
S1133A00BF90AF909F9008958091E504882311F0B2
S1133A1080E008958091F9048111FACF8FEF089521
S1133A20823050F49EE0899FF0011124E650FB4F50
S1133A3040835183628373830895823050F49EE0FF
S1133A40899FF0011124E650FB4F4483558366831C
S1133A5077830895823050F49EE0899FF001112409
S1133A60E650FB4F40875187628773870895823001
S1133A7040F49EE0899FF0011124E650FB4F5587E6
S1133A8044870895EF92FF920F931F93CF93DF9390
S1133A90F12CFEE0EF2E0F2D10E0E09EE001E19E00
S1133AA0D00D1124C650DB4F488159816A817B8136
S1133AB0E4E0000F111FEA95E1F7C801805090403F
S1133AC00E94B5254C815D816E817F81C8018C5F28
S1133AD09F4F0E94B525488559856A857B85C80115
S1133AE0885F9F4F0E94B5256C857D85C801845FE2
S1133AF09F4F0E94BA256EE070E0CE010E946E04D2
S1133B00BC01C801825F9F4F0E94BA25F39482E0F2
S1133B10F812C1CFDF91CF911F910F91FF90EF90D9
S1133B200895CF93DF93CDB7DEB765970FB6F894BA
S1133B30DEBF0FBECDBF85E1E0E9F2E0DE01119604
S1133B4001900D928A95E1F780EC9DEBA0EFBFEF19
S1133B5089839A83AB83BC8388EC90E0A0E0B0E0D7
S1133B60898B9A8BAB8BBC8B41E061E0CE010196D3
S1133B700E941A1280E492E4AFE0B0E089839A8351
S1133B80AB83BC8382E390E0A0E0B0E0898B9A8BA6
S1133B90AB8BBC8B40E061E0CE0101960E941A120F
S1133BA00E94D21210928A0410928B0410928C04F8
S1133BB010928D041092900210929102109292022F
S1133BC0109293020E94320565960FB6F894DEBFF8
S1133BD00FBECDBFDF91CF910895CF92DF92EF92C8
S1133BE0FF92CF93DF93CDB7DEB765970FB6F89406
S1133BF0DEBF0FBECDBF85E1E0E9F2E0DE01119644
S1133C0001900D928A95E1F780E492E4AFE0B0E090
S1133C1089839A83AB83BC8388ECC82ED12CE12C96
S1133C20F12CC98ADA8AEB8AFC8A41E061E0CE0190
S1133C3001960E941A1280EC9DEBA0EFBFEF8983DE
S1133C409A83AB83BC8382E390E0A0E0B0E0898BED
S1133C509A8BAB8BBC8B40E061E0CE0101960E9455
S1133C601A120E94D21280E49DE0A3E0B0E0809397
S1133C708A0490938B04A0938C04B0938D04809356
S1133C80900290939102A0939202B09393020E94A7
S1133C90320519821A821B821C82C98ADA8AEB8A4B
S1133CA0FC8A40E060E0CE0101960E941A126596FB
S1133CB00FB6F894DEBF0FBECDBFDF91CF91FF905A
S1133CC0EF90DF90CF900895CF93DF93CDB7DEB719
S1133CD065970FB6F894DEBF0FBECDBF85E1E0E96E
S1133CE0F2E0DE01119601900D928A95E1F780ECE5
S1133CF09DEBA0EFBFEF8D839E83AF83B88788ECE5
S1133D0090E0A0E0B0E0898B9A8BAB8BBC8B41E058
S1133D1062E0CE0101960E941A1280E492E4AFE0C0
S1133D20B0E08D839E83AF83B88782E390E0A0E008
S1133D30B0E0898B9A8BAB8BBC8B40E062E0CE0108
S1133D4001960E941A120E94D21210928E041092AE
S1133D508F04109290041092910410929402109285
S1133D60950210929602109297020E94320565966F
S1133D700FB6F894DEBF0FBECDBFDF91CF9108958B
S1133D80CF92DF92EF92FF92CF93DF93CDB7DEB75E
S1133D9065970FB6F894DEBF0FBECDBF85E1E0E9AD
S1133DA0F2E0DE01119601900D928A95E1F780E42C
S1133DB092E4AFE0B0E08D839E83AF83B88798EC44
S1133DC0C92ED12CE12CF12CC98ADA8AEB8AFC8A1F
S1133DD041E062E0CE0101960E941A1280EC9DEB54
S1133DE0A0EFBFEF8D839E83AF83B88782E390E01B
S1133DF0A0E0B0E0898B9A8BAB8BBC8B40E062E097
S1133E00CE0101960E941A120E94D21280E49DE013
S1133E10A3E0B0E080938E0490938F04A093900469
S1133E20B09391048093940290939502A093960288
S1133E30B09397020E9432051D821E821F8218864B
S1133E40C98ADA8AEB8AFC8A40E060E0CE010196F6
S1133E500E941A1265960FB6F894DEBF0FBECDBF4E
S1133E60DF91CF91FF90EF90DF90CF900895CF93A3
S1133E70DF93CDB7DEB765970FB6F894DEBF0FBEFC
S1133E80CDBF85E1E0E9F2E0DE01119601900D92EB
S1133E908A95E1F780EC9DEBA0EFBFEF89879A87C5
S1133EA0AB87BC8784E690E0A0E0B0E0898B9A8B76
S1133EB0AB8BBC8B41E064E0CE0101960E941A12E8
S1133EC080E492E4AFE0B0E089879A87AB87BC874F
S1133ED081E090E0A0E0B0E0898B9A8BAB8BBC8B47
S1133EE040E064E0CE0101960E941A120E94D212B0
S1133EF010929204109293041092940410929504D8
S1133F00109298021092990210929A0210929B02B7
S1133F100E94320565960FB6F894DEBF0FBECDBF82
S1133F20DF91CF910895FDDDCFDEA1CF089585E81F
S1133F3080936400E5E6F0E0808186608083808180
S1133F408260808380E880BFA1E0B1E08C918D7FA6
S1133F508C93E2E0F1E080818D7F80838C918E7F71
S1133F608C9380818E7F8083A4E0B1E08C918D7FDF
S1133F708C93E5E0F1E080818D7F80838C918E7F4E
S1133F808C9380818E7F8083ABE0B1E08C91877FBE
S1133F908C93EAE0F1E08081886080838C918D7F4E
S1133FA08C9380818260808353985B9814980C9AD8
S1133FB016980E9A089529D00E947213B8DF7BD404
S1133FC0F2DA0E9492040E942C03BAD2789481EC13
S1133FD092E0F4C0F0DFA1D0882339F00E94B91137
S1133FE0811103C0A1D00E9480130E949003F3CFDB
S1133FF08091C004811103C081E08093C0041092B9
S1134000BF0408951092C004089582E08093C00014
S113401080E190E09093C5008093C400E1ECF0E06F
S113402088E1808386E08093C2008081806A8083F7
S113403008951F920F920FB60F9211240BB60F9290
S11340402F933F938F939F93EF93FF932FB7809179
S1134050C3043091C40490E0831B910901978F73CA
S11340609927892B79F0E091C404F0E08091C6008F
S1134070EA5EFA4F80838091C4048F5F8F738093CC
S1134080C40402C08091C6002FBFFF91EF919F919D
S11340908F913F912F910F900BBE0F900FBE0F90F9
S11340A01F9018951F920F920FB60F9211240BB602
S11340B00F922F933F938F939F93EF93FF932FB779
S11340C08091C2043091C10490E0831B91098F73E5
S11340D09927892B79F0E091C104F0E0EA5AFA4F6C
S11340E080818093C6008091C1048F5F8F73809319
S11340F0C10405C08091C1008F7D8093C1002FBF92
S1134100FF91EF919F918F913F912F910F900BBE53
S11341100F900FBE0F901F9018958091C40490913A
S1134120C304891B8F7308958091C4042091C30430
S113413090E0821B91098F739927892B69F0E09194
S1134140C304F0E0EA5EFA4F80819091C3049F5F5C
S11341509F739093C304089580E008950FB607FEFB
S11341600EC02091C1049091C20430E0291B310992
S1134170215031092F733327232B99F30DC020913C
S1134180C1049091C20430E0291B31092150310946
S11341902F733327232B61F0E091C204F0E0EA5A35
S11341A0FA4F80838091C2048F5F8F738093C2041F
S11341B08091C10080628093C10008951F93CF93C2
S11341C0DF93EC0110E001C0C9DFFE01E10FF11D36
S11341D01F5F84918111F8CFDF91CF911F910895D2
S11341E08F708A3010F4805D01C0895CB7CFCF93A3
S11341F0C82F82958F70F4DF8C2F8F70CF91F0CF02
S1134200CF93C82F892FF3DF8C2FCF91F0CFCF928C
S1134210DF92EF92FF926B017C01C701F1DFC601CF
S1134220FF90EF90DF90CF90EBCFCF92DF92EF92A1
S1134230FF92CF936B017C01E2E3F2E0C9E0B2911B
S1134240A29192918291C816D906EA06FB0620F43F
S1134250C150A9F701C0C82F84E0C89FF001112400
S1134260E65FFD4F408151816281738180E005C02A
S1134270C41AD50AE60AF70A8F5FC416D506E606FD
S1134280F706B0F7805D6ADF8C2F8150C111E3CF50
S1134290CF91FF90EF90DF90CF900895CF92DF926F
S11342A0EF92FF926B017C0197FF0AC08DE256DF0B
S11342B0F094E094D094C094C11CD11CE11CF11C76
S11342C0C701B601FF90EF90DF90CF90AECFCF92B1
S11342D0DF92EF92FF920F931F93CF93DF936B01C3
S11342E07C01D42FE2E3F2E0C9E0B291A291929171
S11342F08291C816D906EA06FB0610F4C150A9F744
S1134300CD1718F4CD2F01C0C82F84E0C89FF00149
S11343101124E65FFD4F008111812281338180E009
S113432005C0C01AD10AE20AF30A8F5FC016D1068B
S1134330E206F306B0F7805D11DFCD1302C08EE212
S11343400DDF8C2F8150C111DFCFDF91CF911F91F1
S11343500F91FF90EF90DF90CF900895CF92DF926E
S1134360EF92FF92CF93DF931F92CDB7DEB76B012D
S11343707C0197FF0CC08DE24983F0DEF094E09459
S1134380D094C094C11CD11CE11CF11C4981C7010B
S1134390B6010F90DF91CF91FF90EF90DF90CF9017
S11343A096CFCF92DF92EF92FF920F931F93CF930A
S11343B0DF931F92CDB7DEB77E018FE0E80EF11CCC
S11343C00D851E8520E08BC0222309F47DC0813732
S11343D009F46BC048F4843631F18C3609F47AC0A0
S11343E0833609F06EC037C0853739F08837D9F184
S11343F0833709F066C021E070C06701243049F4B6
S1134400E4E0CE0ED11CF701608171818281938139
S113441008C0F2E0CF0ED11CF7016081718180E009
S113442090E003DF3CC06701243049F4F4E0CF0E90
S1134430D11CF70160817181828193810AC0F2E00D
S1134440CF0ED11CF70160817181882777FD80959B
S1134450982F24DF24C06701F2E0CF0ED11CF701AE
S113446080817CDE1CC08BEC92E02983A7DE29814D
S1134470243059F46701F4E0CF0ED11CF7016081B8
S1134480718182819381C3DE0AC082E0C82ED12C5F
S1134490CE0CDF1CF701213021F48081A8DE7601E7
S11344A011C080819181ACDEFACF6701F4E0CF0EB8
S11344B0D11CF701608171818281938143E04EDFD9
S11344C0EECF4CDE20E009C0853231F0298346DE90
S11344D0298103C024E001C022E00F5F1F4FF801CF
S11344E08491811171CF0F90DF91CF911F910F9122
S11344F0FF90EF90DF90CF90089599E0899FF001AD
S11345001124EA56FA4F818192819C01237033274A
S113451039E1239F202D11241F922F93969587957F
S1134520969587959F938F938DE096E09F938F93B5
S113453038DF0F900F900F900F900F900F90089509
S113454008954F925F926F927F92AF92BF92CF92F3
S1134550DF92EF92FF920F931F93CF93DF9380919B
S11345609D0590919E05009731F0019790939E05CB
S113457080939D0572C080E00E94830321E030E0B7
S1134580A901440F551F440F551FFA01E253FD4F73
S1134590C591D4918C179D0708F037C02C01612C6C
S11345A0712C21503109220F331F220F331FF901BF
S11345B0E253FD4F05911491FA01E053FD4FA5918B
S11345C0B49120533D4FF901A590B490A3019201F9
S11345D0201B310B41095109AED26B017C019E01B4
S11345E040E050E02419350946095709D501A3D202
S11345F0C60ED71EE81EF91E9E01201B310B40E09B
S113460050E0C701B6014ED208C02F5F3F4F263697
S1134610310509F0B5CF20E030E010929E051092EC
S11346209D054091970550919805A6E6B0E077D294
S11346306B017C019A01AAE9B3E071D2C60ED71EC0
S1134640E81EF91E3AE0F594E794D794C7943A9596
S1134650D1F7D0929805C092970540919705509153
S113466098052091990530919A05BA01621B730B44
S113467080919B0590919C056D3EEFEF7E074CF079
S11346806431710534F480326CE1960778F4019654
S113469004C08B30910530F00A9790939C05809369
S11346A09B0504C010929C0510929B0560E080E07D
S11346B0DF91CF911F910F91FF90EF90DF90CF90FA
S11346C0BF90AF907F906F905F904F90E5C88091BE
S11346D09B0590919C058037974110F08FEF0895CA
S11346E080E0089581110FC08091990590919A05F9
S11346F08617970741F070939A0560939905109275
S11347009C0510929B050895823091F48EEF95E0FC
S11347109F938F9346DE80E0F0DE81E096E09F93E6
S11347208F933FDE0F900F900F900F9081E00EC09B
S113473081110DC01F921F9285E096E09F938F9385
S113474030DE0F900F900F900F9080E0D6CE08953A
S11347501F920F920FB60F9211242F938F939F9352
S11347602FB78091AA009091AB0093589093AB001F
S11347708093AA008091CA04982F9E5F9093CA04E4
S11347809A30E0F088508093CA0491E09093C70473
S11347908091C9048F5F8093C904893178F01092A5
S11347A0C9049093C6048091C8048F5F8093C804A1
S11347B0843020F01092C8049093C5042FBF9F91B9
S11347C08F912F910F900FBE0F901F9018951F92ED
S11347D00F920FB60F9211240BB60F922F933F93A3
S11347E04F935F936F937F938F939F93AF93BF93F5
S11347F0EF93FF93EFB740919F055091A00560910F
S1134800A1057091A2054115510521E062077105CA
S113481040F4809172008D7F809372000E94701228
S113482037C0DB01CA01119780939F059093A005BF
S1134830A093A105B093A205009721E0A207B105BA
S113484058F42091A8003091A900280F391F309303
S1134850A9002093A8001BC080319742A140B10554
S1134860B0F48091A8009091A90080519742909350
S1134870A9008093A800405F584D610971094093D5
S11348809F055093A0056093A1057093A205EFBF07
S1134890FF91EF91BF91AF919F918F917F916F9114
S11348A05F914F913F912F910F900BBE0F900FBED0
S11348B00F901F9018951092A00081E08093A100A2
S11348C080E09DE79093AB008093AA0084E08093FE
S11348D0720008950F931F93209172002460209317
S11348E07200F8944091A8005091A90000919F058E
S11348F01091A0052091A1053091A205012B022B56
S1134900032B21F44091A4005091A50060939F05CE
S11349107093A0058093A1059093A205611571057C
S113492021E08207910538F4640F751F7093A90084
S11349306093A80020C0603127E2720721E082075B
S11349409105A8F4405157425093A9004093A80000
S1134950DC01CB01805F984DAF4FBF4F80939F0523
S11349609093A005A093A105B093A20504C0509311
S1134970A9004093A8008091720082608093720025
S11349801F910F91089510927200089540D008F479
S113499081E00895E89409C097FB3EF490958095D2
S11349A0709561957F4F8F4F9F4F9923A9F0F92FF1
S11349B096E9BB279395F695879577956795B7956F
S11349C0F111F8CFFAF4BB0F11F460FF1BC06F5F55
S11349D07F4F8F4F9F4F16C0882311F096E911C067
S11349E0772321F09EE8872F762F05C0662371F088
S11349F096E8862F70E060E02AF09A95660F771F9C
S1134A00881FDAF7880F9695879597F90895990F77
S1134A100008550FAA0BE0E8FEEF16161706E80784
S1134A20F907C0F012161306E407F50798F0621BA5
S1134A30730B840B950B39F40A2661F0232B242B7A
S1134A40252B21F408950A2609F4A140A6958FEF99
S1134A50811D811D0895DBDF08F48FEF0895DB01CC
S1134A608F939F9368D0BF91AF91A29F800D911DAA
S1134A70A39F900DB29F900D11240895AA1BBB1BF8
S1134A8051E107C0AA1FBB1FA617B70710F0A61B4A
S1134A90B70B881F991F5A95A9F780959095BC016B
S1134AA0CD010895A1E21A2EAA1BBB1BFD010DC066
S1134AB0AA1FBB1FEE1FFF1FA217B307E407F507CA
S1134AC020F0A21BB30BE40BF50B661F771F881FA6
S1134AD0991F1A9469F760957095809590959B013C
S1134AE0AC01BD01CF010895052E97FB16F4009487
S1134AF006D057FD0CD0D6DF07FC09D07EF4909584
S1134B008095709561957F4F8F4F9F4F0895509575
S1134B104095309521953F4F4F4F5F4F0895A29F89
S1134B20B001B39FC001A39F01D0B29F700D811D3E
S1134B301124911D0895F3DFA59F900DB49F900D4E
S1134B40A49F800D911D11240895B7FFF4CFF3DFC6
S1134B50821B930B0895A6E1B0E044E050E00FC03F
S1134B60A8E1B0E042E050E00AC0242F17D0252F7E
S1134B7015D000C012D0272F11C0DC01CB01FC01DD
S1134B80F999FECF06C0F2BDE1BDF89A319600B4A2
S1134B900D9241505040B8F70895262FF999FECF51
S1134BA01FBA92BD81BD20BD0FB6F894FA9AF99A46
S10D4BB00FBE01960895F894FFCF9C
S1134BBA250004B300020105AC00010000000A004C
S1134BCA000064000000E803000010270000A0862B
S1134BDA010040420F008096980000E1F50500CAE2
S1054BEA9A3BF0
S9030000FC
